{
  "contractName": "WhiteDebridge",
  "abi": [
    {
      "inputs": [
        {
          "internalType": "uint256",
          "name": "_chainId",
          "type": "uint256"
        },
        {
          "internalType": "uint256",
          "name": "_minAmount",
          "type": "uint256"
        },
        {
          "internalType": "uint256",
          "name": "_transferFee",
          "type": "uint256"
        },
        {
          "internalType": "contract IWhiteAggregator",
          "name": "_aggregator",
          "type": "address"
        },
        {
          "internalType": "uint256[]",
          "name": "_supportedChainIds",
          "type": "uint256[]"
        }
      ],
      "stateMutability": "nonpayable",
      "type": "constructor"
    },
    {
      "anonymous": false,
      "inputs": [
        {
          "indexed": false,
          "internalType": "bytes32",
          "name": "burntId",
          "type": "bytes32"
        },
        {
          "indexed": false,
          "internalType": "bytes32",
          "name": "debridgeId",
          "type": "bytes32"
        },
        {
          "indexed": false,
          "internalType": "uint256",
          "name": "amount",
          "type": "uint256"
        },
        {
          "indexed": false,
          "internalType": "address",
          "name": "receiver",
          "type": "address"
        },
        {
          "indexed": false,
          "internalType": "uint256",
          "name": "nonce",
          "type": "uint256"
        },
        {
          "indexed": false,
          "internalType": "uint256",
          "name": "chainIdTo",
          "type": "uint256"
        }
      ],
      "name": "Burnt",
      "type": "event"
    },
    {
      "anonymous": false,
      "inputs": [
        {
          "indexed": false,
          "internalType": "uint256",
          "name": "amount",
          "type": "uint256"
        },
        {
          "indexed": false,
          "internalType": "address",
          "name": "receiver",
          "type": "address"
        },
        {
          "indexed": false,
          "internalType": "bytes32",
          "name": "debridgeId",
          "type": "bytes32"
        }
      ],
      "name": "Claimed",
      "type": "event"
    },
    {
      "anonymous": false,
      "inputs": [
        {
          "indexed": false,
          "internalType": "uint256",
          "name": "amount",
          "type": "uint256"
        },
        {
          "indexed": false,
          "internalType": "address",
          "name": "receiver",
          "type": "address"
        },
        {
          "indexed": false,
          "internalType": "bytes32",
          "name": "debridgeId",
          "type": "bytes32"
        }
      ],
      "name": "Minted",
      "type": "event"
    },
    {
      "anonymous": false,
      "inputs": [
        {
          "indexed": true,
          "internalType": "bytes32",
          "name": "role",
          "type": "bytes32"
        },
        {
          "indexed": true,
          "internalType": "bytes32",
          "name": "previousAdminRole",
          "type": "bytes32"
        },
        {
          "indexed": true,
          "internalType": "bytes32",
          "name": "newAdminRole",
          "type": "bytes32"
        }
      ],
      "name": "RoleAdminChanged",
      "type": "event"
    },
    {
      "anonymous": false,
      "inputs": [
        {
          "indexed": true,
          "internalType": "bytes32",
          "name": "role",
          "type": "bytes32"
        },
        {
          "indexed": true,
          "internalType": "address",
          "name": "account",
          "type": "address"
        },
        {
          "indexed": true,
          "internalType": "address",
          "name": "sender",
          "type": "address"
        }
      ],
      "name": "RoleGranted",
      "type": "event"
    },
    {
      "anonymous": false,
      "inputs": [
        {
          "indexed": true,
          "internalType": "bytes32",
          "name": "role",
          "type": "bytes32"
        },
        {
          "indexed": true,
          "internalType": "address",
          "name": "account",
          "type": "address"
        },
        {
          "indexed": true,
          "internalType": "address",
          "name": "sender",
          "type": "address"
        }
      ],
      "name": "RoleRevoked",
      "type": "event"
    },
    {
      "anonymous": false,
      "inputs": [
        {
          "indexed": false,
          "internalType": "bytes32",
          "name": "sentId",
          "type": "bytes32"
        },
        {
          "indexed": false,
          "internalType": "bytes32",
          "name": "debridgeId",
          "type": "bytes32"
        },
        {
          "indexed": false,
          "internalType": "uint256",
          "name": "amount",
          "type": "uint256"
        },
        {
          "indexed": false,
          "internalType": "address",
          "name": "receiver",
          "type": "address"
        },
        {
          "indexed": false,
          "internalType": "uint256",
          "name": "nonce",
          "type": "uint256"
        },
        {
          "indexed": false,
          "internalType": "uint256",
          "name": "chainIdTo",
          "type": "uint256"
        }
      ],
      "name": "Sent",
      "type": "event"
    },
    {
      "inputs": [],
      "name": "AGGREGATOR_ROLE",
      "outputs": [
        {
          "internalType": "bytes32",
          "name": "",
          "type": "bytes32"
        }
      ],
      "stateMutability": "view",
      "type": "function"
    },
    {
      "inputs": [],
      "name": "DEFAULT_ADMIN_ROLE",
      "outputs": [
        {
          "internalType": "bytes32",
          "name": "",
          "type": "bytes32"
        }
      ],
      "stateMutability": "view",
      "type": "function"
    },
    {
      "inputs": [],
      "name": "DENOMINATOR",
      "outputs": [
        {
          "internalType": "uint256",
          "name": "",
          "type": "uint256"
        }
      ],
      "stateMutability": "view",
      "type": "function"
    },
    {
      "inputs": [],
      "name": "aggregator",
      "outputs": [
        {
          "internalType": "contract IWhiteAggregator",
          "name": "",
          "type": "address"
        }
      ],
      "stateMutability": "view",
      "type": "function"
    },
    {
      "inputs": [],
      "name": "chainId",
      "outputs": [
        {
          "internalType": "uint256",
          "name": "",
          "type": "uint256"
        }
      ],
      "stateMutability": "view",
      "type": "function"
    },
    {
      "inputs": [],
      "name": "collectedFees",
      "outputs": [
        {
          "internalType": "uint256",
          "name": "",
          "type": "uint256"
        }
      ],
      "stateMutability": "view",
      "type": "function"
    },
    {
      "inputs": [
        {
          "internalType": "bytes32",
          "name": "",
          "type": "bytes32"
        }
      ],
      "name": "getDebridge",
      "outputs": [
        {
          "internalType": "address",
          "name": "tokenAddress",
          "type": "address"
        },
        {
          "internalType": "uint256",
          "name": "chainId",
          "type": "uint256"
        },
        {
          "internalType": "uint256",
          "name": "minAmount",
          "type": "uint256"
        },
        {
          "internalType": "uint256",
          "name": "transferFee",
          "type": "uint256"
        }
      ],
      "stateMutability": "view",
      "type": "function"
    },
    {
      "inputs": [
        {
          "internalType": "bytes32",
          "name": "role",
          "type": "bytes32"
        }
      ],
      "name": "getRoleAdmin",
      "outputs": [
        {
          "internalType": "bytes32",
          "name": "",
          "type": "bytes32"
        }
      ],
      "stateMutability": "view",
      "type": "function"
    },
    {
      "inputs": [
        {
          "internalType": "bytes32",
          "name": "role",
          "type": "bytes32"
        },
        {
          "internalType": "address",
          "name": "account",
          "type": "address"
        }
      ],
      "name": "grantRole",
      "outputs": [],
      "stateMutability": "nonpayable",
      "type": "function"
    },
    {
      "inputs": [
        {
          "internalType": "bytes32",
          "name": "role",
          "type": "bytes32"
        },
        {
          "internalType": "address",
          "name": "account",
          "type": "address"
        }
      ],
      "name": "hasRole",
      "outputs": [
        {
          "internalType": "bool",
          "name": "",
          "type": "bool"
        }
      ],
      "stateMutability": "view",
      "type": "function"
    },
    {
      "inputs": [
        {
          "internalType": "bytes32",
          "name": "",
          "type": "bytes32"
        }
      ],
      "name": "isBurntConfirmed",
      "outputs": [
        {
          "internalType": "bool",
          "name": "",
          "type": "bool"
        }
      ],
      "stateMutability": "view",
      "type": "function"
    },
    {
      "inputs": [
        {
          "internalType": "bytes32",
          "name": "",
          "type": "bytes32"
        }
      ],
      "name": "isMintConfirmed",
      "outputs": [
        {
          "internalType": "bool",
          "name": "",
          "type": "bool"
        }
      ],
      "stateMutability": "view",
      "type": "function"
    },
    {
      "inputs": [],
      "name": "nonce",
      "outputs": [
        {
          "internalType": "uint256",
          "name": "",
          "type": "uint256"
        }
      ],
      "stateMutability": "view",
      "type": "function"
    },
    {
      "inputs": [
        {
          "internalType": "bytes32",
          "name": "role",
          "type": "bytes32"
        },
        {
          "internalType": "address",
          "name": "account",
          "type": "address"
        }
      ],
      "name": "renounceRole",
      "outputs": [],
      "stateMutability": "nonpayable",
      "type": "function"
    },
    {
      "inputs": [
        {
          "internalType": "bytes32",
          "name": "role",
          "type": "bytes32"
        },
        {
          "internalType": "address",
          "name": "account",
          "type": "address"
        }
      ],
      "name": "revokeRole",
      "outputs": [],
      "stateMutability": "nonpayable",
      "type": "function"
    },
    {
      "inputs": [
        {
          "internalType": "bytes4",
          "name": "interfaceId",
          "type": "bytes4"
        }
      ],
      "name": "supportsInterface",
      "outputs": [
        {
          "internalType": "bool",
          "name": "",
          "type": "bool"
        }
      ],
      "stateMutability": "view",
      "type": "function"
    },
    {
      "inputs": [
        {
          "internalType": "address",
          "name": "_tokenAddress",
          "type": "address"
        },
        {
          "internalType": "address",
          "name": "_receiver",
          "type": "address"
        },
        {
          "internalType": "uint256",
          "name": "_amount",
          "type": "uint256"
        },
        {
          "internalType": "uint256",
          "name": "_chainIdTo",
          "type": "uint256"
        }
      ],
      "name": "send",
      "outputs": [],
      "stateMutability": "payable",
      "type": "function"
    },
    {
      "inputs": [
        {
          "internalType": "bytes32",
          "name": "_debridgeId",
          "type": "bytes32"
        },
        {
          "internalType": "uint256",
          "name": "_amount",
          "type": "uint256"
        },
        {
          "internalType": "address",
          "name": "_receiver",
          "type": "address"
        },
        {
          "internalType": "uint256",
          "name": "_nonce",
          "type": "uint256"
        }
      ],
      "name": "claim",
      "outputs": [],
      "stateMutability": "nonpayable",
      "type": "function"
    },
    {
      "inputs": [
        {
          "internalType": "bytes32",
          "name": "_debridgeId",
          "type": "bytes32"
        },
        {
          "internalType": "address",
          "name": "_receiver",
          "type": "address"
        },
        {
          "internalType": "uint256",
          "name": "_amount",
          "type": "uint256"
        }
      ],
      "name": "burn",
      "outputs": [],
      "stateMutability": "nonpayable",
      "type": "function"
    },
    {
      "inputs": [
        {
          "internalType": "bytes32",
          "name": "_mintId",
          "type": "bytes32"
        }
      ],
      "name": "submitMint",
      "outputs": [],
      "stateMutability": "nonpayable",
      "type": "function"
    },
    {
      "inputs": [
        {
          "internalType": "bytes32",
          "name": "_burntId",
          "type": "bytes32"
        }
      ],
      "name": "submitBurnt",
      "outputs": [],
      "stateMutability": "nonpayable",
      "type": "function"
    },
    {
      "inputs": [
        {
          "internalType": "bytes32",
          "name": "_debridgeId",
          "type": "bytes32"
        },
        {
          "internalType": "uint256",
          "name": "_amount",
          "type": "uint256"
        },
        {
          "internalType": "address",
          "name": "_receiver",
          "type": "address"
        },
        {
          "internalType": "uint256",
          "name": "_nonce",
          "type": "uint256"
        }
      ],
      "name": "mint",
      "outputs": [],
      "stateMutability": "nonpayable",
      "type": "function"
    },
    {
      "inputs": [
        {
          "internalType": "address",
          "name": "_tokenAddress",
          "type": "address"
        },
        {
          "internalType": "uint256",
          "name": "_minAmount",
          "type": "uint256"
        },
        {
          "internalType": "uint256",
          "name": "_transferFee",
          "type": "uint256"
        },
        {
          "internalType": "uint256[]",
          "name": "_supportedChainIds",
          "type": "uint256[]"
        }
      ],
      "name": "addNativelAsset",
      "outputs": [],
      "stateMutability": "nonpayable",
      "type": "function"
    },
    {
      "inputs": [
        {
          "internalType": "bytes32",
          "name": "_debridgeId",
          "type": "bytes32"
        },
        {
          "internalType": "uint256",
          "name": "_chainId",
          "type": "uint256"
        },
        {
          "internalType": "bool",
          "name": "_isSupported",
          "type": "bool"
        }
      ],
      "name": "setChainIdSupport",
      "outputs": [],
      "stateMutability": "nonpayable",
      "type": "function"
    },
    {
      "inputs": [
        {
          "internalType": "bytes32",
          "name": "_debridgeId",
          "type": "bytes32"
        },
        {
          "internalType": "uint256",
          "name": "_chainId",
          "type": "uint256"
        },
        {
          "internalType": "uint256",
          "name": "_minAmount",
          "type": "uint256"
        },
        {
          "internalType": "uint256",
          "name": "_transferFee",
          "type": "uint256"
        },
        {
          "internalType": "uint256[]",
          "name": "_supportedChainIds",
          "type": "uint256[]"
        },
        {
          "internalType": "string",
          "name": "_name",
          "type": "string"
        },
        {
          "internalType": "string",
          "name": "_symbol",
          "type": "string"
        }
      ],
      "name": "addExternalAsset",
      "outputs": [],
      "stateMutability": "nonpayable",
      "type": "function"
    },
    {
      "inputs": [
        {
          "internalType": "address",
          "name": "_aggregator",
          "type": "address"
        }
      ],
      "name": "addAggregator",
      "outputs": [],
      "stateMutability": "nonpayable",
      "type": "function"
    },
    {
      "inputs": [
        {
          "internalType": "address",
          "name": "_aggregator",
          "type": "address"
        }
      ],
      "name": "removeAggregator",
      "outputs": [],
      "stateMutability": "nonpayable",
      "type": "function"
    },
    {
      "inputs": [
        {
          "internalType": "uint256",
          "name": "_chainId",
          "type": "uint256"
        },
        {
          "internalType": "address",
          "name": "_tokenAddress",
          "type": "address"
        }
      ],
      "name": "getDebridgeId",
      "outputs": [
        {
          "internalType": "bytes32",
          "name": "",
          "type": "bytes32"
        }
      ],
      "stateMutability": "pure",
      "type": "function"
    }
  ],
  "bytecode": "0x60806040523480156200001157600080fd5b50604051620065db380380620065db833981810160405281019062000037919062000473565b8460018190555060008560006040516020016200005692919062000544565b60405160208183030381529060405280519060200120905062000087816000600154888887620000e960201b60201c565b82600460006101000a81548173ffffffffffffffffffffffffffffffffffffffff021916908373ffffffffffffffffffffffffffffffffffffffff160217905550620000dd6000801b336200022a60201b60201c565b50505050505062000784565b6000600560008881526020019081526020016000209050858160000160006101000a81548173ffffffffffffffffffffffffffffffffffffffff021916908373ffffffffffffffffffffffffffffffffffffffff1602179055508481600101819055508381600201819055508281600301819055506001816004016000600154815260200190815260200160002060006101000a81548160ff02191690831515021790555060005b825181101562000220576001826004016000858481518110620001dd577f4e487b7100000000000000000000000000000000000000000000000000000000600052603260045260246000fd5b6020026020010151815260200190815260200160002060006101000a81548160ff0219169083151502179055508080620002179062000654565b91505062000191565b5050505050505050565b6200023c82826200024060201b60201c565b5050565b6200025282826200033160201b60201c565b6200032d57600160008084815260200190815260200160002060000160008373ffffffffffffffffffffffffffffffffffffffff1673ffffffffffffffffffffffffffffffffffffffff16815260200190815260200160002060006101000a81548160ff021916908315150217905550620002d26200039b60201b60201c565b73ffffffffffffffffffffffffffffffffffffffff168173ffffffffffffffffffffffffffffffffffffffff16837f2f8788117e7eff1d82e926ec794901d17c78024a50270940304540a733656f0d60405160405180910390a45b5050565b600080600084815260200190815260200160002060000160008373ffffffffffffffffffffffffffffffffffffffff1673ffffffffffffffffffffffffffffffffffffffff16815260200190815260200160002060009054906101000a900460ff16905092915050565b600033905090565b6000620003ba620003b4846200059d565b62000574565b90508083825260208201905082856020860282011115620003da57600080fd5b60005b858110156200040e5781620003f388826200045c565b845260208401935060208301925050600181019050620003dd565b5050509392505050565b600082601f8301126200042a57600080fd5b81516200043c848260208601620003a3565b91505092915050565b600081519050620004568162000750565b92915050565b6000815190506200046d816200076a565b92915050565b600080600080600060a086880312156200048c57600080fd5b60006200049c888289016200045c565b9550506020620004af888289016200045c565b9450506040620004c2888289016200045c565b9350506060620004d58882890162000445565b925050608086015167ffffffffffffffff811115620004f357600080fd5b620005018882890162000418565b9150509295509295909350565b620005236200051d82620005cc565b620006a2565b82525050565b6200053e620005388262000614565b620006ca565b82525050565b600062000552828562000529565b6020820191506200056482846200050e565b6014820191508190509392505050565b60006200058062000593565b90506200058e82826200061e565b919050565b6000604051905090565b600067ffffffffffffffff821115620005bb57620005ba62000703565b5b602082029050602081019050919050565b6000620005d982620005f4565b9050919050565b6000620005ed82620005cc565b9050919050565b600073ffffffffffffffffffffffffffffffffffffffff82169050919050565b6000819050919050565b620006298262000732565b810181811067ffffffffffffffff821117156200064b576200064a62000703565b5b80604052505050565b6000620006618262000614565b91507fffffffffffffffffffffffffffffffffffffffffffffffffffffffffffffffff821415620006975762000696620006d4565b5b600182019050919050565b6000620006af82620006b6565b9050919050565b6000620006c38262000743565b9050919050565b6000819050919050565b7f4e487b7100000000000000000000000000000000000000000000000000000000600052601160045260246000fd5b7f4e487b7100000000000000000000000000000000000000000000000000000000600052604160045260246000fd5b6000601f19601f8301169050919050565b60008160601b9050919050565b6200075b81620005e0565b81146200076757600080fd5b50565b620007758162000614565b81146200078157600080fd5b50565b615e4780620007946000396000f3fe608060405260043610620001e25760003560e01c80638c651f111162000103578063a1e5c7b11162000097578063affed0e0116200006d578063affed0e014620006d2578063c3c37fbc1462000702578063c9ce8b821462000730578063d547741f146200075e57620001e2565b8063a1e5c7b1146200061a578063a217fddf146200065e578063a61ece18146200068e57620001e2565b806391d1485411620000d957806391d1485414620005345780639682b90914620005785780639a8a059214620005bc578063a1b1c40914620005ec57620001e2565b80638c651f1114620004a65780639003adfe14620004d4578063918f8674146200050457620001e2565b80633225b10b116200017b5780633dc28cf111620001515780633dc28cf114620003e357806357cf07ca14620004035780635e35206c146200044a5780636520b009146200047857620001e2565b80633225b10b1462000357578063346a9074146200038757806336568abe14620003b557620001e2565b806317bb58e311620001bd57806317bb58e31462000287578063245a7bfc14620002b5578063248a9ca314620002e55780632f2ff15d146200032957620001e2565b806301ffc9a714620001e75780630a0e5e9a146200022b5780630b29b9431462000259575b600080fd5b348015620001f457600080fd5b506200021360048036038101906200020d9190620026c5565b6200078c565b60405162000222919062002bc8565b60405180910390f35b3480156200023857600080fd5b5062000257600480360381019062000251919062002577565b62000809565b005b3480156200026657600080fd5b506200028560048036038101906200027f919062002448565b620008a4565b005b3480156200029457600080fd5b50620002b36004803603810190620002ad919062002397565b62000941565b005b348015620002c257600080fd5b50620002cd620009dc565b604051620002dc919062002c6f565b60405180910390f35b348015620002f257600080fd5b506200031160048036038101906200030b919062002448565b62000a02565b60405162000320919062002be5565b60405180910390f35b3480156200033657600080fd5b506200035560048036038101906200034f919062002474565b62000a21565b005b3480156200036457600080fd5b506200036f62000a92565b6040516200037e919062002be5565b60405180910390f35b3480156200039457600080fd5b50620003b36004803603810190620003ad9190620024b5565b62000ab6565b005b348015620003c257600080fd5b50620003e16004803603810190620003db919062002474565b62000d23565b005b620004016004803603810190620003fb91906200232b565b62000dad565b005b3480156200041057600080fd5b506200042f600480360381019062000429919062002448565b620010ba565b60405162000441949392919062002b7b565b60405180910390f35b3480156200045757600080fd5b50620004766004803603810190620004709190620025cd565b6200110a565b005b3480156200048557600080fd5b50620004a460048036038101906200049e9190620022ff565b620011b4565b005b348015620004b357600080fd5b50620004d26004803603810190620004cc9190620022ff565b620011e3565b005b348015620004e157600080fd5b50620004ec62001212565b604051620004fb919062002ec7565b60405180910390f35b3480156200051157600080fd5b506200051c62001218565b6040516200052b919062002ec7565b60405180910390f35b3480156200054157600080fd5b506200056060048036038101906200055a919062002474565b62001224565b6040516200056f919062002bc8565b60405180910390f35b3480156200058557600080fd5b50620005a460048036038101906200059e9190620026f1565b6200128e565b604051620005b3919062002be5565b60405180910390f35b348015620005c957600080fd5b50620005d4620012c3565b604051620005e3919062002ec7565b60405180910390f35b348015620005f957600080fd5b506200061860048036038101906200061291906200250b565b620012c9565b005b3480156200062757600080fd5b5062000646600480360381019062000640919062002448565b62001542565b60405162000655919062002bc8565b60405180910390f35b3480156200066b57600080fd5b506200067662001562565b60405162000685919062002be5565b60405180910390f35b3480156200069b57600080fd5b50620006ba6004803603810190620006b4919062002448565b62001569565b604051620006c9919062002bc8565b60405180910390f35b348015620006df57600080fd5b50620006ea62001589565b604051620006f9919062002ec7565b60405180910390f35b3480156200070f57600080fd5b506200072e60048036038101906200072891906200250b565b6200158f565b005b3480156200073d57600080fd5b506200075c600480360381019062000756919062002448565b62001926565b005b3480156200076b57600080fd5b506200078a600480360381019062000784919062002474565b620019c3565b005b60007f7965db0b000000000000000000000000000000000000000000000000000000007bffffffffffffffffffffffffffffffffffffffffffffffffffffffff1916827bffffffffffffffffffffffffffffffffffffffffffffffffffffffff19161480620008025750620008018262001a34565b5b9050919050565b620008186000801b3362001224565b6200085a576040517f08c379a0000000000000000000000000000000000000000000000000000000008152600401620008519062002db7565b60405180910390fd5b60006005600085815260200190815260200160002090508181600401600085815260200190815260200160002060006101000a81548160ff02191690831515021790555050505050565b620008d07fb3c3f8258c2780bffb0b444bbeed42fe51cc1a89779df0a97a43a56e08602e193362001224565b62000912576040517f08c379a0000000000000000000000000000000000000000000000000000000008152600401620009099062002ea5565b60405180910390fd5b60016006600083815260200190815260200160002060006101000a81548160ff02191690831515021790555050565b620009506000801b3362001224565b62000992576040517f08c379a0000000000000000000000000000000000000000000000000000000008152600401620009899062002db7565b60405180910390fd5b600060015485604051602001620009ab92919062002ae1565b604051602081830303815290604052805190602001209050620009d5818660015487878762001a9e565b5050505050565b600460009054906101000a900473ffffffffffffffffffffffffffffffffffffffff1681565b6000806000838152602001908152602001600020600101549050919050565b62000a4062000a308362000a02565b62000a3a62001bdf565b62001224565b62000a82576040517f08c379a000000000000000000000000000000000000000000000000000000000815260040162000a799062002ceb565b60405180910390fd5b62000a8e828262001be7565b5050565b7fb3c3f8258c2780bffb0b444bbeed42fe51cc1a89779df0a97a43a56e08602e1981565b60006005600085815260200190815260200160002090506001548160010154141562000b19576040517f08c379a000000000000000000000000000000000000000000000000000000000815260040162000b109062002d95565b60405180910390fd5b8060020154821162000b62576040517f08c379a000000000000000000000000000000000000000000000000000000000815260040162000b599062002d0d565b60405180910390fd5b60008160000160009054906101000a900473ffffffffffffffffffffffffffffffffffffffff1690508073ffffffffffffffffffffffffffffffffffffffff166323b872dd3330866040518463ffffffff1660e01b815260040162000bca9392919062002b11565b602060405180830381600087803b15801562000be557600080fd5b505af115801562000bfa573d6000803e3d6000fd5b505050506040513d601f19601f8201168201806040525081019062000c2091906200241c565b506000670de0b6b3a764000083600301548562000c3e919062003076565b62000c4a91906200303e565b9050600081111562000c8257806002600082825462000c6a919062002fe1565b92505081905550808462000c7f9190620030d7565b93505b600086858760035460405160200162000c9f949392919062002a72565b6040516020818303038152906040528051906020012090507fb8cc5195d548dc2781227c496b92d3736cd56d7f32b28971c9ae1e9eb0badf9581888789600354896001015460405162000cf89695949392919062002c02565b60405180910390a16003600081548092919062000d159062003235565b919050555050505050505050565b62000d2d62001bdf565b73ffffffffffffffffffffffffffffffffffffffff168173ffffffffffffffffffffffffffffffffffffffff161462000d9d576040517f08c379a000000000000000000000000000000000000000000000000000000000815260040162000d949062002e83565b60405180910390fd5b62000da9828262001ccc565b5050565b60006001548560405160200162000dc692919062002ae1565b604051602081830303815290604052805190602001209050600060056000838152602001908152602001600020905080600401600084815260200190815260200160002060009054906101000a900460ff1662000e5a576040517f08c379a000000000000000000000000000000000000000000000000000000000815260040162000e519062002e1d565b60405180910390fd5b806004016000600154815260200190815260200160002060009054906101000a900460ff1662000ec1576040517f08c379a000000000000000000000000000000000000000000000000000000000815260040162000eb89062002e1d565b60405180910390fd5b8060020154841162000f0a576040517f08c379a000000000000000000000000000000000000000000000000000000000815260040162000f019062002d51565b60405180910390fd5b600073ffffffffffffffffffffffffffffffffffffffff168673ffffffffffffffffffffffffffffffffffffffff16141562000f8b5734841462000f85576040517f08c379a000000000000000000000000000000000000000000000000000000000815260040162000f7c9062002e61565b60405180910390fd5b62000fbb565b62000fba3330868973ffffffffffffffffffffffffffffffffffffffff1662001db2909392919063ffffffff16565b5b6000670de0b6b3a764000082600301548662000fd8919062003076565b62000fe491906200303e565b905060008111156200101c57806002600082825462001004919062002fe1565b925050819055508085620010199190620030d7565b94505b600083868860035460405160200162001039949392919062002a72565b6040516020818303038152906040528051906020012090507f17c61cb89b62a3f29f5b150e3489c7a796ac4dc95fd73af14faa2c8086a324b48185888a6003548a6040516200108e9695949392919062002c02565b60405180910390a160036000815480929190620010ab9062003235565b91905055505050505050505050565b60056020528060005260406000206000915090508060000160009054906101000a900473ffffffffffffffffffffffffffffffffffffffff16908060010154908060020154908060030154905084565b620011196000801b3362001224565b6200115b576040517f08c379a0000000000000000000000000000000000000000000000000000000008152600401620011529062002db7565b60405180910390fd5b600082826040516200116d9062002153565b6200117a92919062002cb0565b604051809103906000f08015801562001197573d6000803e3d6000fd5b509050620011aa88828989898962001a9e565b5050505050505050565b620011e07fb3c3f8258c2780bffb0b444bbeed42fe51cc1a89779df0a97a43a56e08602e198262000a21565b50565b6200120f7fb3c3f8258c2780bffb0b444bbeed42fe51cc1a89779df0a97a43a56e08602e1982620019c3565b50565b60025481565b670de0b6b3a764000081565b600080600084815260200190815260200160002060000160008373ffffffffffffffffffffffffffffffffffffffff1673ffffffffffffffffffffffffffffffffffffffff16815260200190815260200160002060009054906101000a900460ff16905092915050565b60008282604051602001620012a592919062002ae1565b60405160208183030381529060405280519060200120905092915050565b60015481565b600084848484604051602001620012e4949392919062002a72565b604051602081830303815290604052805190602001209050600460009054906101000a900473ffffffffffffffffffffffffffffffffffffffff1673ffffffffffffffffffffffffffffffffffffffff1663a1e5c7b1826040518263ffffffff1660e01b815260040162001359919062002be5565b60206040518083038186803b1580156200137257600080fd5b505afa15801562001387573d6000803e3d6000fd5b505050506040513d601f19601f82011682018060405250810190620013ad91906200241c565b620013ef576040517f08c379a0000000000000000000000000000000000000000000000000000000008152600401620013e69062002dfb565b60405180910390fd5b60006005600087815260200190815260200160002090508060000160009054906101000a900473ffffffffffffffffffffffffffffffffffffffff1673ffffffffffffffffffffffffffffffffffffffff166340c10f1985876040518363ffffffff1660e01b81526004016200146792919062002b4e565b600060405180830381600087803b1580156200148257600080fd5b505af115801562001497573d6000803e3d6000fd5b505050506000670de0b6b3a7640000826003015487620014b8919062003076565b620014c491906200303e565b90506000811115620014fc578060026000828254620014e4919062002fe1565b925050819055508086620014f99190620030d7565b95505b7f735d687607ce9e35b73121f5b238c4cd2854db103741adba51d670bb706051cc868689604051620015319392919062002ee4565b60405180910390a150505050505050565b60066020528060005260406000206000915054906101000a900460ff1681565b6000801b81565b60076020528060005260406000206000915054906101000a900460ff1681565b60035481565b620015bb7fb3c3f8258c2780bffb0b444bbeed42fe51cc1a89779df0a97a43a56e08602e193362001224565b620015fd576040517f08c379a0000000000000000000000000000000000000000000000000000000008152600401620015f49062002ea5565b60405180910390fd5b60008484848460405160200162001618949392919062002a72565b604051602081830303815290604052805190602001209050600460009054906101000a900473ffffffffffffffffffffffffffffffffffffffff1673ffffffffffffffffffffffffffffffffffffffff1663a61ece18826040518263ffffffff1660e01b81526004016200168d919062002be5565b60206040518083038186803b158015620016a657600080fd5b505afa158015620016bb573d6000803e3d6000fd5b505050506040513d601f19601f82011682018060405250810190620016e191906200241c565b62001723576040517f08c379a00000000000000000000000000000000000000000000000000000000081526004016200171a9062002dfb565b60405180910390fd5b600060056000878152602001908152602001600020905060015481600101541462001785576040517f08c379a00000000000000000000000000000000000000000000000000000000081526004016200177c9062002e1d565b60405180910390fd5b600073ffffffffffffffffffffffffffffffffffffffff168160000160009054906101000a900473ffffffffffffffffffffffffffffffffffffffff1673ffffffffffffffffffffffffffffffffffffffff1614156200182d578373ffffffffffffffffffffffffffffffffffffffff166108fc869081150290604051600060405180830381858888f1935050505015801562001826573d6000803e3d6000fd5b506200187f565b6200187e84868360000160009054906101000a900473ffffffffffffffffffffffffffffffffffffffff1673ffffffffffffffffffffffffffffffffffffffff1662001e3f9092919063ffffffff16565b5b6000670de0b6b3a76400008260030154876200189c919062003076565b620018a891906200303e565b90506000811115620018e0578060026000828254620018c8919062002fe1565b925050819055508086620018dd9190620030d7565b95505b7fbcb8b73e5a89971ee294cc3d2f51a084375b679f88047211b28c5344acb53df5868689604051620019159392919062002ee4565b60405180910390a150505050505050565b620019527fb3c3f8258c2780bffb0b444bbeed42fe51cc1a89779df0a97a43a56e08602e193362001224565b62001994576040517f08c379a00000000000000000000000000000000000000000000000000000000081526004016200198b9062002ea5565b60405180910390fd5b60016007600083815260200190815260200160002060006101000a81548160ff02191690831515021790555050565b620019e2620019d28362000a02565b620019dc62001bdf565b62001224565b62001a24576040517f08c379a000000000000000000000000000000000000000000000000000000000815260040162001a1b9062002d73565b60405180910390fd5b62001a30828262001ccc565b5050565b60007f01ffc9a7000000000000000000000000000000000000000000000000000000007bffffffffffffffffffffffffffffffffffffffffffffffffffffffff1916827bffffffffffffffffffffffffffffffffffffffffffffffffffffffff1916149050919050565b6000600560008881526020019081526020016000209050858160000160006101000a81548173ffffffffffffffffffffffffffffffffffffffff021916908373ffffffffffffffffffffffffffffffffffffffff1602179055508481600101819055508381600201819055508281600301819055506001816004016000600154815260200190815260200160002060006101000a81548160ff02191690831515021790555060005b825181101562001bd557600182600401600085848151811062001b92577f4e487b7100000000000000000000000000000000000000000000000000000000600052603260045260246000fd5b6020026020010151815260200190815260200160002060006101000a81548160ff021916908315150217905550808062001bcc9062003235565b91505062001b46565b5050505050505050565b600033905090565b62001bf3828262001224565b62001cc857600160008084815260200190815260200160002060000160008373ffffffffffffffffffffffffffffffffffffffff1673ffffffffffffffffffffffffffffffffffffffff16815260200190815260200160002060006101000a81548160ff02191690831515021790555062001c6d62001bdf565b73ffffffffffffffffffffffffffffffffffffffff168173ffffffffffffffffffffffffffffffffffffffff16837f2f8788117e7eff1d82e926ec794901d17c78024a50270940304540a733656f0d60405160405180910390a45b5050565b62001cd8828262001224565b1562001dae57600080600084815260200190815260200160002060000160008373ffffffffffffffffffffffffffffffffffffffff1673ffffffffffffffffffffffffffffffffffffffff16815260200190815260200160002060006101000a81548160ff02191690831515021790555062001d5362001bdf565b73ffffffffffffffffffffffffffffffffffffffff168173ffffffffffffffffffffffffffffffffffffffff16837ff6391f5c32d9c69d2a47ea670b442974b53935d1edc7fd64eb21e047a839171b60405160405180910390a45b5050565b62001e39846323b872dd60e01b85858560405160240162001dd69392919062002b11565b604051602081830303815290604052907bffffffffffffffffffffffffffffffffffffffffffffffffffffffff19166020820180517bffffffffffffffffffffffffffffffffffffffffffffffffffffffff838183161783525050505062001ec9565b50505050565b62001ec48363a9059cbb60e01b848460405160240162001e6192919062002b4e565b604051602081830303815290604052907bffffffffffffffffffffffffffffffffffffffffffffffffffffffff19166020820180517bffffffffffffffffffffffffffffffffffffffffffffffffffffffff838183161783525050505062001ec9565b505050565b600062001f2d826040518060400160405280602081526020017f5361666545524332303a206c6f772d6c6576656c2063616c6c206661696c65648152508573ffffffffffffffffffffffffffffffffffffffff1662001f989092919063ffffffff16565b905060008151111562001f93578080602001905181019062001f5091906200241c565b62001f92576040517f08c379a000000000000000000000000000000000000000000000000000000000815260040162001f899062002e3f565b60405180910390fd5b5b505050565b606062001fa9848460008562001fb2565b90509392505050565b60608247101562001ffa576040517f08c379a000000000000000000000000000000000000000000000000000000000815260040162001ff19062002d2f565b60405180910390fd5b6200200585620020d4565b62002047576040517f08c379a00000000000000000000000000000000000000000000000000000000081526004016200203e9062002dd9565b60405180910390fd5b6000808673ffffffffffffffffffffffffffffffffffffffff16858760405162002072919062002ac8565b60006040518083038185875af1925050503d8060008114620020b1576040519150601f19603f3d011682016040523d82523d6000602084013e620020b6565b606091505b5091509150620020c8828286620020e7565b92505050949350505050565b600080823b905060008111915050919050565b60608315620020f9578290506200214c565b6000835111156200210d5782518084602001fd5b816040517f08c379a000000000000000000000000000000000000000000000000000000000815260040162002143919062002c8c565b60405180910390fd5b9392505050565b61272980620036e983390190565b600062002178620021728462002f4a565b62002f21565b905080838252602082019050828560208602820111156200219857600080fd5b60005b85811015620021cc5781620021b18882620022e8565b8452602084019350602083019250506001810190506200219b565b5050509392505050565b6000620021ed620021e78462002f79565b62002f21565b9050828152602081018484840111156200220657600080fd5b62002213848285620031ba565b509392505050565b6000813590506200222c8162003666565b92915050565b600082601f8301126200224457600080fd5b81356200225684826020860162002161565b91505092915050565b600081359050620022708162003680565b92915050565b600081519050620022878162003680565b92915050565b6000813590506200229e816200369a565b92915050565b600081359050620022b581620036b4565b92915050565b600082601f830112620022cd57600080fd5b8135620022df848260208601620021d6565b91505092915050565b600081359050620022f981620036ce565b92915050565b6000602082840312156200231257600080fd5b600062002322848285016200221b565b91505092915050565b600080600080608085870312156200234257600080fd5b600062002352878288016200221b565b945050602062002365878288016200221b565b93505060406200237887828801620022e8565b92505060606200238b87828801620022e8565b91505092959194509250565b60008060008060808587031215620023ae57600080fd5b6000620023be878288016200221b565b9450506020620023d187828801620022e8565b9350506040620023e487828801620022e8565b925050606085013567ffffffffffffffff8111156200240257600080fd5b620024108782880162002232565b91505092959194509250565b6000602082840312156200242f57600080fd5b60006200243f8482850162002276565b91505092915050565b6000602082840312156200245b57600080fd5b60006200246b848285016200228d565b91505092915050565b600080604083850312156200248857600080fd5b600062002498858286016200228d565b9250506020620024ab858286016200221b565b9150509250929050565b600080600060608486031215620024cb57600080fd5b6000620024db868287016200228d565b9350506020620024ee868287016200221b565b92505060406200250186828701620022e8565b9150509250925092565b600080600080608085870312156200252257600080fd5b600062002532878288016200228d565b94505060206200254587828801620022e8565b935050604062002558878288016200221b565b92505060606200256b87828801620022e8565b91505092959194509250565b6000806000606084860312156200258d57600080fd5b60006200259d868287016200228d565b9350506020620025b086828701620022e8565b9250506040620025c3868287016200225f565b9150509250925092565b600080600080600080600060e0888a031215620025e957600080fd5b6000620025f98a828b016200228d565b97505060206200260c8a828b01620022e8565b96505060406200261f8a828b01620022e8565b9550506060620026328a828b01620022e8565b945050608088013567ffffffffffffffff8111156200265057600080fd5b6200265e8a828b0162002232565b93505060a088013567ffffffffffffffff8111156200267c57600080fd5b6200268a8a828b01620022bb565b92505060c088013567ffffffffffffffff811115620026a857600080fd5b620026b68a828b01620022bb565b91505092959891949750929550565b600060208284031215620026d857600080fd5b6000620026e884828501620022a4565b91505092915050565b600080604083850312156200270557600080fd5b60006200271585828601620022e8565b925050602062002728858286016200221b565b9150509250929050565b6200273d8162003112565b82525050565b62002758620027528262003112565b62003283565b82525050565b620027698162003126565b82525050565b6200277a8162003132565b82525050565b620027956200278f8262003132565b62003297565b82525050565b6000620027a88262002faf565b620027b4818562002fc5565b9350620027c6818560208601620031c9565b80840191505092915050565b620027dd8162003192565b82525050565b6000620027f08262002fba565b620027fc818562002fd0565b93506200280e818560208601620031c9565b62002819816200334c565b840191505092915050565b600062002833602f8362002fd0565b915062002840826200336a565b604082019050919050565b60006200285a60148362002fd0565b91506200286782620033b9565b602082019050919050565b60006200288160268362002fd0565b91506200288e82620033e2565b604082019050919050565b6000620028a860148362002fd0565b9150620028b58262003431565b602082019050919050565b6000620028cf60308362002fd0565b9150620028dc826200345a565b604082019050919050565b6000620028f660138362002fd0565b91506200290382620034a9565b602082019050919050565b60006200291d60138362002fd0565b91506200292a82620034d2565b602082019050919050565b600062002944601d8362002fd0565b91506200295182620034fb565b602082019050919050565b60006200296b60138362002fd0565b9150620029788262003524565b602082019050919050565b600062002992601f8362002fd0565b91506200299f826200354d565b602082019050919050565b6000620029b9602a8362002fd0565b9150620029c68262003576565b604082019050919050565b6000620029e060158362002fd0565b9150620029ed82620035c5565b602082019050919050565b600062002a07602f8362002fd0565b915062002a1482620035ee565b604082019050919050565b600062002a2e60188362002fd0565b915062002a3b826200363d565b602082019050919050565b62002a518162003188565b82525050565b62002a6c62002a668262003188565b620032b5565b82525050565b600062002a80828762002780565b60208201915062002a92828662002a57565b60208201915062002aa4828562002743565b60148201915062002ab6828462002a57565b60208201915081905095945050505050565b600062002ad682846200279b565b915081905092915050565b600062002aef828562002a57565b60208201915062002b01828462002743565b6014820191508190509392505050565b600060608201905062002b28600083018662002732565b62002b37602083018562002732565b62002b46604083018462002a46565b949350505050565b600060408201905062002b65600083018562002732565b62002b74602083018462002a46565b9392505050565b600060808201905062002b92600083018762002732565b62002ba1602083018662002a46565b62002bb0604083018562002a46565b62002bbf606083018462002a46565b95945050505050565b600060208201905062002bdf60008301846200275e565b92915050565b600060208201905062002bfc60008301846200276f565b92915050565b600060c08201905062002c1960008301896200276f565b62002c2860208301886200276f565b62002c37604083018762002a46565b62002c46606083018662002732565b62002c55608083018562002a46565b62002c6460a083018462002a46565b979650505050505050565b600060208201905062002c866000830184620027d2565b92915050565b6000602082019050818103600083015262002ca88184620027e3565b905092915050565b6000604082019050818103600083015262002ccc8185620027e3565b9050818103602083015262002ce28184620027e3565b90509392505050565b6000602082019050818103600083015262002d068162002824565b9050919050565b6000602082019050818103600083015262002d28816200284b565b9050919050565b6000602082019050818103600083015262002d4a8162002872565b9050919050565b6000602082019050818103600083015262002d6c8162002899565b9050919050565b6000602082019050818103600083015262002d8e81620028c0565b9050919050565b6000602082019050818103600083015262002db081620028e7565b9050919050565b6000602082019050818103600083015262002dd2816200290e565b9050919050565b6000602082019050818103600083015262002df48162002935565b9050919050565b6000602082019050818103600083015262002e16816200295c565b9050919050565b6000602082019050818103600083015262002e388162002983565b9050919050565b6000602082019050818103600083015262002e5a81620029aa565b9050919050565b6000602082019050818103600083015262002e7c81620029d1565b9050919050565b6000602082019050818103600083015262002e9e81620029f8565b9050919050565b6000602082019050818103600083015262002ec08162002a1f565b9050919050565b600060208201905062002ede600083018462002a46565b92915050565b600060608201905062002efb600083018662002a46565b62002f0a602083018562002732565b62002f1960408301846200276f565b949350505050565b600062002f2d62002f40565b905062002f3b8282620031ff565b919050565b6000604051905090565b600067ffffffffffffffff82111562002f685762002f676200331d565b5b602082029050602081019050919050565b600067ffffffffffffffff82111562002f975762002f966200331d565b5b62002fa2826200334c565b9050602081019050919050565b600081519050919050565b600081519050919050565b600081905092915050565b600082825260208201905092915050565b600062002fee8262003188565b915062002ffb8362003188565b9250827fffffffffffffffffffffffffffffffffffffffffffffffffffffffffffffffff03821115620030335762003032620032bf565b5b828201905092915050565b60006200304b8262003188565b9150620030588362003188565b9250826200306b576200306a620032ee565b5b828204905092915050565b6000620030838262003188565b9150620030908362003188565b9250817fffffffffffffffffffffffffffffffffffffffffffffffffffffffffffffffff0483118215151615620030cc57620030cb620032bf565b5b828202905092915050565b6000620030e48262003188565b9150620030f18362003188565b925082821015620031075762003106620032bf565b5b828203905092915050565b60006200311f8262003168565b9050919050565b60008115159050919050565b6000819050919050565b60007fffffffff0000000000000000000000000000000000000000000000000000000082169050919050565b600073ffffffffffffffffffffffffffffffffffffffff82169050919050565b6000819050919050565b60006200319f82620031a6565b9050919050565b6000620031b38262003168565b9050919050565b82818337600083830152505050565b60005b83811015620031e9578082015181840152602081019050620031cc565b83811115620031f9576000848401525b50505050565b6200320a826200334c565b810181811067ffffffffffffffff821117156200322c576200322b6200331d565b5b80604052505050565b6000620032428262003188565b91507fffffffffffffffffffffffffffffffffffffffffffffffffffffffffffffffff821415620032785762003277620032bf565b5b600182019050919050565b60006200329082620032a1565b9050919050565b6000819050919050565b6000620032ae826200335d565b9050919050565b6000819050919050565b7f4e487b7100000000000000000000000000000000000000000000000000000000600052601160045260246000fd5b7f4e487b7100000000000000000000000000000000000000000000000000000000600052601260045260246000fd5b7f4e487b7100000000000000000000000000000000000000000000000000000000600052604160045260246000fd5b6000601f19601f8301169050919050565b60008160601b9050919050565b7f416363657373436f6e74726f6c3a2073656e646572206d75737420626520616e60008201527f2061646d696e20746f206772616e740000000000000000000000000000000000602082015250565b7f6275726e3a20616d6f756e7420746f6f206c6f77000000000000000000000000600082015250565b7f416464726573733a20696e73756666696369656e742062616c616e636520666f60008201527f722063616c6c0000000000000000000000000000000000000000000000000000602082015250565b7f73656e643a20616d6f756e7420746f6f206c6f77000000000000000000000000600082015250565b7f416363657373436f6e74726f6c3a2073656e646572206d75737420626520616e60008201527f2061646d696e20746f207265766f6b6500000000000000000000000000000000602082015250565b7f6275726e3a2077726f6e6720636861696e496400000000000000000000000000600082015250565b7f6f6e6c7941646d696e3a2062616420726f6c6500000000000000000000000000600082015250565b7f416464726573733a2063616c6c20746f206e6f6e2d636f6e7472616374000000600082015250565b7f6d696e743a206e6f7420636f6e6669726d656400000000000000000000000000600082015250565b7f73656e643a2077726f6e67207461726765642074617267657420636861696e00600082015250565b7f5361666545524332303a204552433230206f7065726174696f6e20646964206e60008201527f6f74207375636365656400000000000000000000000000000000000000000000602082015250565b7f73656e643a20616d6f756e74206d69736d617463680000000000000000000000600082015250565b7f416363657373436f6e74726f6c3a2063616e206f6e6c792072656e6f756e636560008201527f20726f6c657320666f722073656c660000000000000000000000000000000000602082015250565b7f6f6e6c7941676772656761746f723a2062616420726f6c650000000000000000600082015250565b620036718162003112565b81146200367d57600080fd5b50565b6200368b8162003126565b81146200369757600080fd5b50565b620036a58162003132565b8114620036b157600080fd5b50565b620036bf816200313c565b8114620036cb57600080fd5b50565b620036d98162003188565b8114620036e557600080fd5b5056fe60806040523480156200001157600080fd5b506040516200272938038062002729833981810160405281019062000037919062000197565b818181600490805190602001906200005192919062000075565b5080600590805190602001906200006a92919062000075565b50505050506200037a565b82805462000083906200029f565b90600052602060002090601f016020900481019282620000a75760008555620000f3565b82601f10620000c257805160ff1916838001178555620000f3565b82800160010185558215620000f3579182015b82811115620000f2578251825591602001919060010190620000d5565b5b50905062000102919062000106565b5090565b5b808211156200012157600081600090555060010162000107565b5090565b60006200013c620001368462000233565b6200020a565b9050828152602081018484840111156200015557600080fd5b6200016284828562000269565b509392505050565b600082601f8301126200017c57600080fd5b81516200018e84826020860162000125565b91505092915050565b60008060408385031215620001ab57600080fd5b600083015167ffffffffffffffff811115620001c657600080fd5b620001d4858286016200016a565b925050602083015167ffffffffffffffff811115620001f257600080fd5b62000200858286016200016a565b9150509250929050565b60006200021662000229565b9050620002248282620002d5565b919050565b6000604051905090565b600067ffffffffffffffff8211156200025157620002506200033a565b5b6200025c8262000369565b9050602081019050919050565b60005b83811015620002895780820151818401526020810190506200026c565b8381111562000299576000848401525b50505050565b60006002820490506001821680620002b857607f821691505b60208210811415620002cf57620002ce6200030b565b5b50919050565b620002e08262000369565b810181811067ffffffffffffffff821117156200030257620003016200033a565b5b80604052505050565b7f4e487b7100000000000000000000000000000000000000000000000000000000600052602260045260246000fd5b7f4e487b7100000000000000000000000000000000000000000000000000000000600052604160045260246000fd5b6000601f19601f8301169050919050565b61239f806200038a6000396000f3fe608060405234801561001057600080fd5b50600436106101375760003560e01c806340c10f19116100b8578063a217fddf1161007c578063a217fddf14610374578063a457c2d714610392578063a9059cbb146103c2578063d5391393146103f2578063d547741f14610410578063dd62ed3e1461042c57610137565b806340c10f19146102be57806342966c68146102da57806370a08231146102f657806391d148541461032657806395d89b411461035657610137565b8063248a9ca3116100ff578063248a9ca3146102085780632f2ff15d14610238578063313ce5671461025457806336568abe14610272578063395093511461028e57610137565b806301ffc9a71461013c57806306fdde031461016c578063095ea7b31461018a57806318160ddd146101ba57806323b872dd146101d8575b600080fd5b61015660048036038101906101519190611803565b61045c565b6040516101639190611ab4565b60405180910390f35b6101746104d6565b6040516101819190611aea565b60405180910390f35b6101a4600480360381019061019f9190611762565b610568565b6040516101b19190611ab4565b60405180910390f35b6101c2610586565b6040516101cf9190611ccc565b60405180910390f35b6101f260048036038101906101ed9190611713565b610590565b6040516101ff9190611ab4565b60405180910390f35b610222600480360381019061021d919061179e565b610691565b60405161022f9190611acf565b60405180910390f35b610252600480360381019061024d91906117c7565b6106b0565b005b61025c610716565b6040516102699190611ce7565b60405180910390f35b61028c600480360381019061028791906117c7565b61071f565b005b6102a860048036038101906102a39190611762565b6107a2565b6040516102b59190611ab4565b60405180910390f35b6102d860048036038101906102d39190611762565b61084e565b005b6102f460048036038101906102ef919061182c565b6108c5565b005b610310600480360381019061030b91906116ae565b61093b565b60405161031d9190611ccc565b60405180910390f35b610340600480360381019061033b91906117c7565b610984565b60405161034d9190611ab4565b60405180910390f35b61035e6109ee565b60405161036b9190611aea565b60405180910390f35b61037c610a80565b6040516103899190611acf565b60405180910390f35b6103ac60048036038101906103a79190611762565b610a87565b6040516103b99190611ab4565b60405180910390f35b6103dc60048036038101906103d79190611762565b610b7b565b6040516103e99190611ab4565b60405180910390f35b6103fa610b99565b6040516104079190611acf565b60405180910390f35b61042a600480360381019061042591906117c7565b610bbd565b005b610446600480360381019061044191906116d7565b610c23565b6040516104539190611ccc565b60405180910390f35b60007f7965db0b000000000000000000000000000000000000000000000000000000007bffffffffffffffffffffffffffffffffffffffffffffffffffffffff1916827bffffffffffffffffffffffffffffffffffffffffffffffffffffffff191614806104cf57506104ce82610caa565b5b9050919050565b6060600480546104e590611e66565b80601f016020809104026020016040519081016040528092919081815260200182805461051190611e66565b801561055e5780601f106105335761010080835404028352916020019161055e565b820191906000526020600020905b81548152906001019060200180831161054157829003601f168201915b5050505050905090565b600061057c610575610d14565b8484610d1c565b6001905092915050565b6000600354905090565b600061059d848484610ee7565b6000600260008673ffffffffffffffffffffffffffffffffffffffff1673ffffffffffffffffffffffffffffffffffffffff16815260200190815260200160002060006105e8610d14565b73ffffffffffffffffffffffffffffffffffffffff1673ffffffffffffffffffffffffffffffffffffffff16815260200190815260200160002054905082811015610668576040517f08c379a000000000000000000000000000000000000000000000000000000000815260040161065f90611bcc565b60405180910390fd5b61068585610674610d14565b85846106809190611d74565b610d1c565b60019150509392505050565b6000806000838152602001908152602001600020600101549050919050565b6106c96106bc83610691565b6106c4610d14565b610984565b610708576040517f08c379a00000000000000000000000000000000000000000000000000000000081526004016106ff90611b2c565b60405180910390fd5b6107128282611169565b5050565b60006012905090565b610727610d14565b73ffffffffffffffffffffffffffffffffffffffff168173ffffffffffffffffffffffffffffffffffffffff1614610794576040517f08c379a000000000000000000000000000000000000000000000000000000000815260040161078b90611c6c565b60405180910390fd5b61079e8282611249565b5050565b60006108446107af610d14565b8484600260006107bd610d14565b73ffffffffffffffffffffffffffffffffffffffff1673ffffffffffffffffffffffffffffffffffffffff16815260200190815260200160002060008873ffffffffffffffffffffffffffffffffffffffff1673ffffffffffffffffffffffffffffffffffffffff1681526020019081526020016000205461083f9190611d1e565b610d1c565b6001905092915050565b6108787f9f2df0fed2c77648de5860a4cc508cd0818c85b8b8a1ab4ceeef8d981c8956a633610984565b6108b7576040517f08c379a00000000000000000000000000000000000000000000000000000000081526004016108ae90611c8c565b60405180910390fd5b6108c1828261132a565b5050565b6108ef7f9f2df0fed2c77648de5860a4cc508cd0818c85b8b8a1ab4ceeef8d981c8956a633610984565b61092e576040517f08c379a000000000000000000000000000000000000000000000000000000000815260040161092590611c8c565b60405180910390fd5b610938338261147f565b50565b6000600160008373ffffffffffffffffffffffffffffffffffffffff1673ffffffffffffffffffffffffffffffffffffffff168152602001908152602001600020549050919050565b600080600084815260200190815260200160002060000160008373ffffffffffffffffffffffffffffffffffffffff1673ffffffffffffffffffffffffffffffffffffffff16815260200190815260200160002060009054906101000a900460ff16905092915050565b6060600580546109fd90611e66565b80601f0160208091040260200160405190810160405280929190818152602001828054610a2990611e66565b8015610a765780601f10610a4b57610100808354040283529160200191610a76565b820191906000526020600020905b815481529060010190602001808311610a5957829003601f168201915b5050505050905090565b6000801b81565b60008060026000610a96610d14565b73ffffffffffffffffffffffffffffffffffffffff1673ffffffffffffffffffffffffffffffffffffffff16815260200190815260200160002060008573ffffffffffffffffffffffffffffffffffffffff1673ffffffffffffffffffffffffffffffffffffffff16815260200190815260200160002054905082811015610b53576040517f08c379a0000000000000000000000000000000000000000000000000000000008152600401610b4a90611c4c565b60405180910390fd5b610b70610b5e610d14565b858584610b6b9190611d74565b610d1c565b600191505092915050565b6000610b8f610b88610d14565b8484610ee7565b6001905092915050565b7f9f2df0fed2c77648de5860a4cc508cd0818c85b8b8a1ab4ceeef8d981c8956a681565b610bd6610bc983610691565b610bd1610d14565b610984565b610c15576040517f08c379a0000000000000000000000000000000000000000000000000000000008152600401610c0c90611bac565b60405180910390fd5b610c1f8282611249565b5050565b6000600260008473ffffffffffffffffffffffffffffffffffffffff1673ffffffffffffffffffffffffffffffffffffffff16815260200190815260200160002060008373ffffffffffffffffffffffffffffffffffffffff1673ffffffffffffffffffffffffffffffffffffffff16815260200190815260200160002054905092915050565b60007f01ffc9a7000000000000000000000000000000000000000000000000000000007bffffffffffffffffffffffffffffffffffffffffffffffffffffffff1916827bffffffffffffffffffffffffffffffffffffffffffffffffffffffff1916149050919050565b600033905090565b600073ffffffffffffffffffffffffffffffffffffffff168373ffffffffffffffffffffffffffffffffffffffff161415610d8c576040517f08c379a0000000000000000000000000000000000000000000000000000000008152600401610d8390611c2c565b60405180910390fd5b600073ffffffffffffffffffffffffffffffffffffffff168273ffffffffffffffffffffffffffffffffffffffff161415610dfc576040517f08c379a0000000000000000000000000000000000000000000000000000000008152600401610df390611b6c565b60405180910390fd5b80600260008573ffffffffffffffffffffffffffffffffffffffff1673ffffffffffffffffffffffffffffffffffffffff16815260200190815260200160002060008473ffffffffffffffffffffffffffffffffffffffff1673ffffffffffffffffffffffffffffffffffffffff168152602001908152602001600020819055508173ffffffffffffffffffffffffffffffffffffffff168373ffffffffffffffffffffffffffffffffffffffff167f8c5be1e5ebec7d5bd14f71427d1e84f3dd0314c0f7b2291e5b200ac8c7c3b92583604051610eda9190611ccc565b60405180910390a3505050565b600073ffffffffffffffffffffffffffffffffffffffff168373ffffffffffffffffffffffffffffffffffffffff161415610f57576040517f08c379a0000000000000000000000000000000000000000000000000000000008152600401610f4e90611c0c565b60405180910390fd5b600073ffffffffffffffffffffffffffffffffffffffff168273ffffffffffffffffffffffffffffffffffffffff161415610fc7576040517f08c379a0000000000000000000000000000000000000000000000000000000008152600401610fbe90611b0c565b60405180910390fd5b610fd2838383611655565b6000600160008573ffffffffffffffffffffffffffffffffffffffff1673ffffffffffffffffffffffffffffffffffffffff16815260200190815260200160002054905081811015611059576040517f08c379a000000000000000000000000000000000000000000000000000000000815260040161105090611b8c565b60405180910390fd5b81816110659190611d74565b600160008673ffffffffffffffffffffffffffffffffffffffff1673ffffffffffffffffffffffffffffffffffffffff1681526020019081526020016000208190555081600160008573ffffffffffffffffffffffffffffffffffffffff1673ffffffffffffffffffffffffffffffffffffffff16815260200190815260200160002060008282546110f79190611d1e565b925050819055508273ffffffffffffffffffffffffffffffffffffffff168473ffffffffffffffffffffffffffffffffffffffff167fddf252ad1be2c89b69c2b068fc378daa952ba7f163c4a11628f55a4df523b3ef8460405161115b9190611ccc565b60405180910390a350505050565b6111738282610984565b61124557600160008084815260200190815260200160002060000160008373ffffffffffffffffffffffffffffffffffffffff1673ffffffffffffffffffffffffffffffffffffffff16815260200190815260200160002060006101000a81548160ff0219169083151502179055506111ea610d14565b73ffffffffffffffffffffffffffffffffffffffff168173ffffffffffffffffffffffffffffffffffffffff16837f2f8788117e7eff1d82e926ec794901d17c78024a50270940304540a733656f0d60405160405180910390a45b5050565b6112538282610984565b1561132657600080600084815260200190815260200160002060000160008373ffffffffffffffffffffffffffffffffffffffff1673ffffffffffffffffffffffffffffffffffffffff16815260200190815260200160002060006101000a81548160ff0219169083151502179055506112cb610d14565b73ffffffffffffffffffffffffffffffffffffffff168173ffffffffffffffffffffffffffffffffffffffff16837ff6391f5c32d9c69d2a47ea670b442974b53935d1edc7fd64eb21e047a839171b60405160405180910390a45b5050565b600073ffffffffffffffffffffffffffffffffffffffff168273ffffffffffffffffffffffffffffffffffffffff16141561139a576040517f08c379a000000000000000000000000000000000000000000000000000000000815260040161139190611cac565b60405180910390fd5b6113a660008383611655565b80600360008282546113b89190611d1e565b9250508190555080600160008473ffffffffffffffffffffffffffffffffffffffff1673ffffffffffffffffffffffffffffffffffffffff168152602001908152602001600020600082825461140e9190611d1e565b925050819055508173ffffffffffffffffffffffffffffffffffffffff16600073ffffffffffffffffffffffffffffffffffffffff167fddf252ad1be2c89b69c2b068fc378daa952ba7f163c4a11628f55a4df523b3ef836040516114739190611ccc565b60405180910390a35050565b600073ffffffffffffffffffffffffffffffffffffffff168273ffffffffffffffffffffffffffffffffffffffff1614156114ef576040517f08c379a00000000000000000000000000000000000000000000000000000000081526004016114e690611bec565b60405180910390fd5b6114fb82600083611655565b6000600160008473ffffffffffffffffffffffffffffffffffffffff1673ffffffffffffffffffffffffffffffffffffffff16815260200190815260200160002054905081811015611582576040517f08c379a000000000000000000000000000000000000000000000000000000000815260040161157990611b4c565b60405180910390fd5b818161158e9190611d74565b600160008573ffffffffffffffffffffffffffffffffffffffff1673ffffffffffffffffffffffffffffffffffffffff1681526020019081526020016000208190555081600360008282546115e39190611d74565b92505081905550600073ffffffffffffffffffffffffffffffffffffffff168373ffffffffffffffffffffffffffffffffffffffff167fddf252ad1be2c89b69c2b068fc378daa952ba7f163c4a11628f55a4df523b3ef846040516116489190611ccc565b60405180910390a3505050565b505050565b6000813590506116698161230d565b92915050565b60008135905061167e81612324565b92915050565b6000813590506116938161233b565b92915050565b6000813590506116a881612352565b92915050565b6000602082840312156116c057600080fd5b60006116ce8482850161165a565b91505092915050565b600080604083850312156116ea57600080fd5b60006116f88582860161165a565b92505060206117098582860161165a565b9150509250929050565b60008060006060848603121561172857600080fd5b60006117368682870161165a565b93505060206117478682870161165a565b925050604061175886828701611699565b9150509250925092565b6000806040838503121561177557600080fd5b60006117838582860161165a565b925050602061179485828601611699565b9150509250929050565b6000602082840312156117b057600080fd5b60006117be8482850161166f565b91505092915050565b600080604083850312156117da57600080fd5b60006117e88582860161166f565b92505060206117f98582860161165a565b9150509250929050565b60006020828403121561181557600080fd5b600061182384828501611684565b91505092915050565b60006020828403121561183e57600080fd5b600061184c84828501611699565b91505092915050565b61185e81611dba565b82525050565b61186d81611dc6565b82525050565b600061187e82611d02565b6118888185611d0d565b9350611898818560208601611e33565b6118a181611ef6565b840191505092915050565b60006118b9602383611d0d565b91506118c482611f07565b604082019050919050565b60006118dc602f83611d0d565b91506118e782611f56565b604082019050919050565b60006118ff602283611d0d565b915061190a82611fa5565b604082019050919050565b6000611922602283611d0d565b915061192d82611ff4565b604082019050919050565b6000611945602683611d0d565b915061195082612043565b604082019050919050565b6000611968603083611d0d565b915061197382612092565b604082019050919050565b600061198b602883611d0d565b9150611996826120e1565b604082019050919050565b60006119ae602183611d0d565b91506119b982612130565b604082019050919050565b60006119d1602583611d0d565b91506119dc8261217f565b604082019050919050565b60006119f4602483611d0d565b91506119ff826121ce565b604082019050919050565b6000611a17602583611d0d565b9150611a228261221d565b604082019050919050565b6000611a3a602f83611d0d565b9150611a458261226c565b604082019050919050565b6000611a5d601883611d0d565b9150611a68826122bb565b602082019050919050565b6000611a80601f83611d0d565b9150611a8b826122e4565b602082019050919050565b611a9f81611e1c565b82525050565b611aae81611e26565b82525050565b6000602082019050611ac96000830184611855565b92915050565b6000602082019050611ae46000830184611864565b92915050565b60006020820190508181036000830152611b048184611873565b905092915050565b60006020820190508181036000830152611b25816118ac565b9050919050565b60006020820190508181036000830152611b45816118cf565b9050919050565b60006020820190508181036000830152611b65816118f2565b9050919050565b60006020820190508181036000830152611b8581611915565b9050919050565b60006020820190508181036000830152611ba581611938565b9050919050565b60006020820190508181036000830152611bc58161195b565b9050919050565b60006020820190508181036000830152611be58161197e565b9050919050565b60006020820190508181036000830152611c05816119a1565b9050919050565b60006020820190508181036000830152611c25816119c4565b9050919050565b60006020820190508181036000830152611c45816119e7565b9050919050565b60006020820190508181036000830152611c6581611a0a565b9050919050565b60006020820190508181036000830152611c8581611a2d565b9050919050565b60006020820190508181036000830152611ca581611a50565b9050919050565b60006020820190508181036000830152611cc581611a73565b9050919050565b6000602082019050611ce16000830184611a96565b92915050565b6000602082019050611cfc6000830184611aa5565b92915050565b600081519050919050565b600082825260208201905092915050565b6000611d2982611e1c565b9150611d3483611e1c565b9250827fffffffffffffffffffffffffffffffffffffffffffffffffffffffffffffffff03821115611d6957611d68611e98565b5b828201905092915050565b6000611d7f82611e1c565b9150611d8a83611e1c565b925082821015611d9d57611d9c611e98565b5b828203905092915050565b6000611db382611dfc565b9050919050565b60008115159050919050565b6000819050919050565b60007fffffffff0000000000000000000000000000000000000000000000000000000082169050919050565b600073ffffffffffffffffffffffffffffffffffffffff82169050919050565b6000819050919050565b600060ff82169050919050565b60005b83811015611e51578082015181840152602081019050611e36565b83811115611e60576000848401525b50505050565b60006002820490506001821680611e7e57607f821691505b60208210811415611e9257611e91611ec7565b5b50919050565b7f4e487b7100000000000000000000000000000000000000000000000000000000600052601160045260246000fd5b7f4e487b7100000000000000000000000000000000000000000000000000000000600052602260045260246000fd5b6000601f19601f8301169050919050565b7f45524332303a207472616e7366657220746f20746865207a65726f206164647260008201527f6573730000000000000000000000000000000000000000000000000000000000602082015250565b7f416363657373436f6e74726f6c3a2073656e646572206d75737420626520616e60008201527f2061646d696e20746f206772616e740000000000000000000000000000000000602082015250565b7f45524332303a206275726e20616d6f756e7420657863656564732062616c616e60008201527f6365000000000000000000000000000000000000000000000000000000000000602082015250565b7f45524332303a20617070726f766520746f20746865207a65726f20616464726560008201527f7373000000000000000000000000000000000000000000000000000000000000602082015250565b7f45524332303a207472616e7366657220616d6f756e742065786365656473206260008201527f616c616e63650000000000000000000000000000000000000000000000000000602082015250565b7f416363657373436f6e74726f6c3a2073656e646572206d75737420626520616e60008201527f2061646d696e20746f207265766f6b6500000000000000000000000000000000602082015250565b7f45524332303a207472616e7366657220616d6f756e742065786365656473206160008201527f6c6c6f77616e6365000000000000000000000000000000000000000000000000602082015250565b7f45524332303a206275726e2066726f6d20746865207a65726f2061646472657360008201527f7300000000000000000000000000000000000000000000000000000000000000602082015250565b7f45524332303a207472616e736665722066726f6d20746865207a65726f20616460008201527f6472657373000000000000000000000000000000000000000000000000000000602082015250565b7f45524332303a20617070726f76652066726f6d20746865207a65726f2061646460008201527f7265737300000000000000000000000000000000000000000000000000000000602082015250565b7f45524332303a2064656372656173656420616c6c6f77616e63652062656c6f7760008201527f207a65726f000000000000000000000000000000000000000000000000000000602082015250565b7f416363657373436f6e74726f6c3a2063616e206f6e6c792072656e6f756e636560008201527f20726f6c657320666f722073656c660000000000000000000000000000000000602082015250565b7f6f6e6c7941676772656761746f723a2062616420726f6c650000000000000000600082015250565b7f45524332303a206d696e7420746f20746865207a65726f206164647265737300600082015250565b61231681611da8565b811461232157600080fd5b50565b61232d81611dc6565b811461233857600080fd5b50565b61234481611dd0565b811461234f57600080fd5b50565b61235b81611e1c565b811461236657600080fd5b5056fea264697066735822122007cd3277e675c5e05d581a8ba3cb86407c02b52d020adca5f263709b7c91676464736f6c63430008020033a264697066735822122047aa88b178b83f4f259b898be11938dddf631a90fec7cc367052587e507bff4564736f6c63430008020033",
  "immutableReferences": {},
  "source": "// SPDX-License-Identifier: MIT\npragma solidity ^0.8.2;\n\nimport \"@openzeppelin/contracts/token/ERC20/ERC20.sol\";\nimport \"@openzeppelin/contracts/token/ERC20/IERC20.sol\";\nimport \"@openzeppelin/contracts/token/ERC20/utils/SafeERC20.sol\";\nimport \"@openzeppelin/contracts/access/AccessControl.sol\";\nimport \"../interfaces/IWhiteDebridge.sol\";\nimport \"../interfaces/IWhiteAggregator.sol\";\nimport \"../periphery/WrappedAsset.sol\";\n\ncontract WhiteDebridge is AccessControl, IWhiteDebridge {\n    using SafeERC20 for IERC20;\n\n    struct DebridgeInfo {\n        address tokenAddress; // asset address on the current chain\n        uint256 chainId; // native chain id\n        uint256 minAmount; // minimal amount to transfer\n        uint256 transferFee; // transfer fee rate\n        mapping(uint256 => bool) isSupported; // wheter the chain for the asset is supported\n    }\n\n    uint256 public constant DENOMINATOR = 1e18;\n    bytes32 public constant AGGREGATOR_ROLE = keccak256(\"AGGREGATOR_ROLE\");\n    uint256 public chainId;\n    uint256 public collectedFees;\n    uint256 public nonce;\n    IWhiteAggregator public aggregator;\n    mapping(bytes32 => DebridgeInfo) public getDebridge; // debridgeId (i.e. hash(native chainId, native tokenAddress)) => token\n    mapping(bytes32 => bool) public isMintConfirmed; // mintId  => confirmed\n    mapping(bytes32 => bool) public isBurntConfirmed; // mintId  => confirmed\n\n    event Sent(\n        bytes32 sentId,\n        bytes32 debridgeId,\n        uint256 amount,\n        address receiver,\n        uint256 nonce,\n        uint256 chainIdTo\n    );\n    event Minted(uint256 amount, address receiver, bytes32 debridgeId);\n    event Burnt(\n        bytes32 burntId,\n        bytes32 debridgeId,\n        uint256 amount,\n        address receiver,\n        uint256 nonce,\n        uint256 chainIdTo\n    );\n    event Claimed(uint256 amount, address receiver, bytes32 debridgeId);\n\n    modifier onlyAggregator {\n        require(\n            hasRole(AGGREGATOR_ROLE, msg.sender),\n            \"onlyAggregator: bad role\"\n        );\n        _;\n    }\n    modifier onlyAdmin {\n        require(hasRole(DEFAULT_ADMIN_ROLE, msg.sender), \"onlyAdmin: bad role\");\n        _;\n    }\n\n    constructor(\n        uint256 _chainId,\n        uint256 _minAmount,\n        uint256 _transferFee,\n        IWhiteAggregator _aggregator,\n        uint256[] memory _supportedChainIds\n    ) {\n        chainId = _chainId;\n        bytes32 debridgeId = keccak256(abi.encodePacked(_chainId, address(0)));\n        _addAsset(\n            debridgeId,\n            address(0),\n            chainId,\n            _minAmount,\n            _transferFee,\n            _supportedChainIds\n        );\n        aggregator = _aggregator;\n        _setupRole(DEFAULT_ADMIN_ROLE, msg.sender);\n    }\n\n    function send(\n        address _tokenAddress,\n        address _receiver,\n        uint256 _amount,\n        uint256 _chainIdTo\n    ) external payable override {\n        bytes32 debridgeId =\n            keccak256(abi.encodePacked(chainId, _tokenAddress));\n        DebridgeInfo storage debridge = getDebridge[debridgeId];\n        require(\n            debridge.isSupported[_chainIdTo],\n            \"send: wrong targed target chain\"\n        );\n        require(\n            debridge.isSupported[chainId],\n            \"send: wrong targed target chain\"\n        );\n        require(_amount > debridge.minAmount, \"send: amount too low\");\n        if (_tokenAddress == address(0)) {\n            require(_amount == msg.value, \"send: amount mismatch\");\n        } else {\n            IERC20(_tokenAddress).safeTransferFrom(\n                msg.sender,\n                address(this),\n                _amount\n            );\n        }\n        uint256 transferFee = (_amount * debridge.transferFee) / DENOMINATOR;\n        if (transferFee > 0) {\n            collectedFees += transferFee;\n            _amount -= transferFee;\n        }\n        bytes32 sentId =\n            keccak256(abi.encodePacked(debridgeId, _amount, _receiver, nonce));\n        emit Sent(sentId, debridgeId, _amount, _receiver, nonce, _chainIdTo);\n        nonce++;\n    }\n\n    function claim(\n        bytes32 _debridgeId,\n        uint256 _amount,\n        address _receiver,\n        uint256 _nonce\n    ) external override onlyAggregator() {\n        bytes32 burntId =\n            keccak256(\n                abi.encodePacked(_debridgeId, _amount, _receiver, _nonce)\n            );\n        require(aggregator.isBurntConfirmed(burntId), \"mint: not confirmed\");\n        DebridgeInfo storage debridge = getDebridge[_debridgeId];\n        require(debridge.chainId == chainId, \"send: wrong targed target chain\");\n        if (debridge.tokenAddress == address(0)) {\n            payable(_receiver).transfer(_amount);\n        } else {\n            IERC20(debridge.tokenAddress).safeTransfer(_receiver, _amount);\n        }\n        uint256 transferFee = (_amount * debridge.transferFee) / DENOMINATOR;\n        if (transferFee > 0) {\n            collectedFees += transferFee;\n            _amount -= transferFee;\n        }\n        emit Claimed(_amount, _receiver, _debridgeId);\n    }\n\n    function burn(\n        bytes32 _debridgeId,\n        address _receiver,\n        uint256 _amount\n    ) external override {\n        DebridgeInfo storage debridge = getDebridge[_debridgeId];\n        require(debridge.chainId != chainId, \"burn: wrong chainId\");\n        require(_amount > debridge.minAmount, \"burn: amount too low\");\n        IWrappedAsset wrappedAsset = IWrappedAsset(debridge.tokenAddress);\n        wrappedAsset.transferFrom(msg.sender, address(this), _amount);\n        uint256 transferFee = (_amount * debridge.transferFee) / DENOMINATOR;\n        if (transferFee > 0) {\n            collectedFees += transferFee;\n            _amount -= transferFee;\n        }\n        bytes32 burntId =\n            keccak256(abi.encodePacked(_debridgeId, _amount, _receiver, nonce));\n        emit Burnt(\n            burntId,\n            _debridgeId,\n            _amount,\n            _receiver,\n            nonce,\n            debridge.chainId\n        );\n        nonce++;\n    }\n\n    function submitMint(bytes32 _mintId) external override onlyAggregator() {\n        isMintConfirmed[_mintId] = true;\n    }\n\n    function submitBurnt(bytes32 _burntId) external override onlyAggregator() {\n        isBurntConfirmed[_burntId] = true;\n    }\n\n    function mint(\n        bytes32 _debridgeId,\n        uint256 _amount,\n        address _receiver,\n        uint256 _nonce\n    ) external override {\n        bytes32 mintId =\n            keccak256(\n                abi.encodePacked(_debridgeId, _amount, _receiver, _nonce)\n            );\n        require(aggregator.isMintConfirmed(mintId), \"mint: not confirmed\");\n        DebridgeInfo storage debridge = getDebridge[_debridgeId];\n        IWrappedAsset(debridge.tokenAddress).mint(_receiver, _amount);\n        uint256 transferFee = (_amount * debridge.transferFee) / DENOMINATOR;\n        if (transferFee > 0) {\n            collectedFees += transferFee;\n            _amount -= transferFee;\n        }\n        emit Minted(_amount, _receiver, _debridgeId);\n    }\n\n    function addNativelAsset(\n        address _tokenAddress,\n        uint256 _minAmount,\n        uint256 _transferFee,\n        uint256[] memory _supportedChainIds\n    ) external override onlyAdmin() {\n        bytes32 debridgeId =\n            keccak256(abi.encodePacked(chainId, _tokenAddress));\n        _addAsset(\n            debridgeId,\n            _tokenAddress,\n            chainId,\n            _minAmount,\n            _transferFee,\n            _supportedChainIds\n        );\n    }\n\n    function setChainIdSupport(\n        bytes32 _debridgeId,\n        uint256 _chainId,\n        bool _isSupported\n    ) external override onlyAdmin() {\n        DebridgeInfo storage debridge = getDebridge[_debridgeId];\n        debridge.isSupported[_chainId] = _isSupported;\n    }\n\n    function addExternalAsset(\n        bytes32 _debridgeId,\n        uint256 _chainId,\n        uint256 _minAmount,\n        uint256 _transferFee,\n        uint256[] memory _supportedChainIds,\n        string memory _name,\n        string memory _symbol\n    ) external override onlyAdmin() {\n        address tokenAddress = address(new WrappedAsset(_name, _symbol));\n        _addAsset(\n            _debridgeId,\n            tokenAddress,\n            _chainId,\n            _minAmount,\n            _transferFee,\n            _supportedChainIds\n        );\n    }\n\n    function addAggregator(address _aggregator) external {\n        grantRole(AGGREGATOR_ROLE, _aggregator);\n    }\n\n    function removeAggregator(address _aggregator) external {\n        revokeRole(AGGREGATOR_ROLE, _aggregator);\n    }\n\n    function _addAsset(\n        bytes32 _debridgeId,\n        address _tokenAddress,\n        uint256 _chainId,\n        uint256 _minAmount,\n        uint256 _transferFee,\n        uint256[] memory _supportedChainIds\n    ) internal {\n        DebridgeInfo storage debridge = getDebridge[_debridgeId];\n        debridge.tokenAddress = _tokenAddress;\n        debridge.chainId = _chainId;\n        debridge.minAmount = _minAmount;\n        debridge.transferFee = _transferFee;\n        debridge.isSupported[chainId] = true;\n        for (uint256 i = 0; i < _supportedChainIds.length; i++) {\n            debridge.isSupported[_supportedChainIds[i]] = true;\n        }\n    }\n\n    function getDebridgeId(uint256 _chainId, address _tokenAddress)\n        external\n        pure\n        returns (bytes32)\n    {\n        return keccak256(abi.encodePacked(_chainId, _tokenAddress));\n    }\n}\n",
  "sourcePath": "/Users/kstasi/Documents/work/debridge-contracts/contracts/transfers/WhiteDebridge.sol",
  "compiler": {
    "name": "solc",
    "version": "0.8.2+commit.661d1103.Emscripten.clang"
  },
  "schemaVersion": "3.3.4",
  "updatedAt": "2021-03-18T10:11:54.680Z",
  "devdoc": {
    "kind": "dev",
    "methods": {
      "getRoleAdmin(bytes32)": {
        "details": "Returns the admin role that controls `role`. See {grantRole} and {revokeRole}. To change a role's admin, use {_setRoleAdmin}."
      },
      "grantRole(bytes32,address)": {
        "details": "Grants `role` to `account`. If `account` had not been already granted `role`, emits a {RoleGranted} event. Requirements: - the caller must have ``role``'s admin role."
      },
      "hasRole(bytes32,address)": {
        "details": "Returns `true` if `account` has been granted `role`."
      },
      "renounceRole(bytes32,address)": {
        "details": "Revokes `role` from the calling account. Roles are often managed via {grantRole} and {revokeRole}: this function's purpose is to provide a mechanism for accounts to lose their privileges if they are compromised (such as when a trusted device is misplaced). If the calling account had been granted `role`, emits a {RoleRevoked} event. Requirements: - the caller must be `account`."
      },
      "revokeRole(bytes32,address)": {
        "details": "Revokes `role` from `account`. If `account` had been granted `role`, emits a {RoleRevoked} event. Requirements: - the caller must have ``role``'s admin role."
      },
      "supportsInterface(bytes4)": {
        "details": "See {IERC165-supportsInterface}."
      }
    },
    "version": 1
  },
  "userdoc": {
    "kind": "user",
    "methods": {},
    "version": 1
  }
}