{
  "contractName": "WhiteAggregator",
  "abi": [
    {
      "inputs": [
        {
          "internalType": "uint256",
          "name": "_minConfirmations",
          "type": "uint256"
        },
        {
          "internalType": "uint128",
          "name": "_payment",
          "type": "uint128"
        },
        {
          "internalType": "contract IERC20",
          "name": "_link",
          "type": "address"
        }
      ],
      "stateMutability": "nonpayable",
      "type": "constructor"
    },
    {
      "anonymous": false,
      "inputs": [
        {
          "indexed": false,
          "internalType": "bytes32",
          "name": "debridgeId",
          "type": "bytes32"
        },
        {
          "indexed": false,
          "internalType": "bytes32",
          "name": "commitment",
          "type": "bytes32"
        }
      ],
      "name": "Broadcasted",
      "type": "event"
    },
    {
      "anonymous": false,
      "inputs": [
        {
          "indexed": false,
          "internalType": "bytes32",
          "name": "commitment",
          "type": "bytes32"
        },
        {
          "indexed": false,
          "internalType": "bytes32",
          "name": "debridgeId",
          "type": "bytes32"
        },
        {
          "indexed": false,
          "internalType": "address",
          "name": "operator",
          "type": "address"
        }
      ],
      "name": "Confirmed",
      "type": "event"
    },
    {
      "anonymous": false,
      "inputs": [
        {
          "indexed": true,
          "internalType": "bytes32",
          "name": "role",
          "type": "bytes32"
        },
        {
          "indexed": true,
          "internalType": "bytes32",
          "name": "previousAdminRole",
          "type": "bytes32"
        },
        {
          "indexed": true,
          "internalType": "bytes32",
          "name": "newAdminRole",
          "type": "bytes32"
        }
      ],
      "name": "RoleAdminChanged",
      "type": "event"
    },
    {
      "anonymous": false,
      "inputs": [
        {
          "indexed": true,
          "internalType": "bytes32",
          "name": "role",
          "type": "bytes32"
        },
        {
          "indexed": true,
          "internalType": "address",
          "name": "account",
          "type": "address"
        },
        {
          "indexed": true,
          "internalType": "address",
          "name": "sender",
          "type": "address"
        }
      ],
      "name": "RoleGranted",
      "type": "event"
    },
    {
      "anonymous": false,
      "inputs": [
        {
          "indexed": true,
          "internalType": "bytes32",
          "name": "role",
          "type": "bytes32"
        },
        {
          "indexed": true,
          "internalType": "address",
          "name": "account",
          "type": "address"
        },
        {
          "indexed": true,
          "internalType": "address",
          "name": "sender",
          "type": "address"
        }
      ],
      "name": "RoleRevoked",
      "type": "event"
    },
    {
      "inputs": [],
      "name": "DEFAULT_ADMIN_ROLE",
      "outputs": [
        {
          "internalType": "bytes32",
          "name": "",
          "type": "bytes32"
        }
      ],
      "stateMutability": "view",
      "type": "function"
    },
    {
      "inputs": [],
      "name": "ORACLE_ROLE",
      "outputs": [
        {
          "internalType": "bytes32",
          "name": "",
          "type": "bytes32"
        }
      ],
      "stateMutability": "view",
      "type": "function"
    },
    {
      "inputs": [
        {
          "internalType": "address",
          "name": "_aggregator",
          "type": "address"
        }
      ],
      "name": "addOracle",
      "outputs": [],
      "stateMutability": "nonpayable",
      "type": "function"
    },
    {
      "inputs": [],
      "name": "allocatedFunds",
      "outputs": [
        {
          "internalType": "uint256",
          "name": "",
          "type": "uint256"
        }
      ],
      "stateMutability": "view",
      "type": "function"
    },
    {
      "inputs": [],
      "name": "availableFunds",
      "outputs": [
        {
          "internalType": "uint256",
          "name": "",
          "type": "uint256"
        }
      ],
      "stateMutability": "view",
      "type": "function"
    },
    {
      "inputs": [
        {
          "internalType": "bytes32",
          "name": "",
          "type": "bytes32"
        }
      ],
      "name": "getBurntInfo",
      "outputs": [
        {
          "internalType": "bool",
          "name": "confirmed",
          "type": "bool"
        },
        {
          "internalType": "uint256",
          "name": "confirmations",
          "type": "uint256"
        }
      ],
      "stateMutability": "view",
      "type": "function"
    },
    {
      "inputs": [
        {
          "internalType": "bytes32",
          "name": "",
          "type": "bytes32"
        }
      ],
      "name": "getDebridge",
      "outputs": [
        {
          "internalType": "contract IWhiteDebridge",
          "name": "",
          "type": "address"
        }
      ],
      "stateMutability": "view",
      "type": "function"
    },
    {
      "inputs": [
        {
          "internalType": "bytes32",
          "name": "",
          "type": "bytes32"
        }
      ],
      "name": "getMintInfo",
      "outputs": [
        {
          "internalType": "bool",
          "name": "confirmed",
          "type": "bool"
        },
        {
          "internalType": "uint256",
          "name": "confirmations",
          "type": "uint256"
        }
      ],
      "stateMutability": "view",
      "type": "function"
    },
    {
      "inputs": [
        {
          "internalType": "bytes32",
          "name": "role",
          "type": "bytes32"
        }
      ],
      "name": "getRoleAdmin",
      "outputs": [
        {
          "internalType": "bytes32",
          "name": "",
          "type": "bytes32"
        }
      ],
      "stateMutability": "view",
      "type": "function"
    },
    {
      "inputs": [
        {
          "internalType": "address",
          "name": "",
          "type": "address"
        }
      ],
      "name": "getRracleInfo",
      "outputs": [
        {
          "internalType": "uint128",
          "name": "withdrawable",
          "type": "uint128"
        },
        {
          "internalType": "address",
          "name": "admin",
          "type": "address"
        },
        {
          "internalType": "address",
          "name": "pendingAdmin",
          "type": "address"
        }
      ],
      "stateMutability": "view",
      "type": "function"
    },
    {
      "inputs": [
        {
          "internalType": "bytes32",
          "name": "role",
          "type": "bytes32"
        },
        {
          "internalType": "address",
          "name": "account",
          "type": "address"
        }
      ],
      "name": "grantRole",
      "outputs": [],
      "stateMutability": "nonpayable",
      "type": "function"
    },
    {
      "inputs": [
        {
          "internalType": "bytes32",
          "name": "role",
          "type": "bytes32"
        },
        {
          "internalType": "address",
          "name": "account",
          "type": "address"
        }
      ],
      "name": "hasRole",
      "outputs": [
        {
          "internalType": "bool",
          "name": "",
          "type": "bool"
        }
      ],
      "stateMutability": "view",
      "type": "function"
    },
    {
      "inputs": [],
      "name": "link",
      "outputs": [
        {
          "internalType": "contract IERC20",
          "name": "",
          "type": "address"
        }
      ],
      "stateMutability": "view",
      "type": "function"
    },
    {
      "inputs": [],
      "name": "minConfirmations",
      "outputs": [
        {
          "internalType": "uint256",
          "name": "",
          "type": "uint256"
        }
      ],
      "stateMutability": "view",
      "type": "function"
    },
    {
      "inputs": [
        {
          "internalType": "address",
          "name": "",
          "type": "address"
        },
        {
          "internalType": "uint256",
          "name": "",
          "type": "uint256"
        },
        {
          "internalType": "bytes",
          "name": "_data",
          "type": "bytes"
        }
      ],
      "name": "onTokenTransfer",
      "outputs": [],
      "stateMutability": "nonpayable",
      "type": "function"
    },
    {
      "inputs": [],
      "name": "payment",
      "outputs": [
        {
          "internalType": "uint128",
          "name": "",
          "type": "uint128"
        }
      ],
      "stateMutability": "view",
      "type": "function"
    },
    {
      "inputs": [
        {
          "internalType": "address",
          "name": "_aggregator",
          "type": "address"
        }
      ],
      "name": "removeOracle",
      "outputs": [],
      "stateMutability": "nonpayable",
      "type": "function"
    },
    {
      "inputs": [
        {
          "internalType": "bytes32",
          "name": "role",
          "type": "bytes32"
        },
        {
          "internalType": "address",
          "name": "account",
          "type": "address"
        }
      ],
      "name": "renounceRole",
      "outputs": [],
      "stateMutability": "nonpayable",
      "type": "function"
    },
    {
      "inputs": [
        {
          "internalType": "bytes32",
          "name": "role",
          "type": "bytes32"
        },
        {
          "internalType": "address",
          "name": "account",
          "type": "address"
        }
      ],
      "name": "revokeRole",
      "outputs": [],
      "stateMutability": "nonpayable",
      "type": "function"
    },
    {
      "inputs": [
        {
          "internalType": "uint256",
          "name": "_minConfirmations",
          "type": "uint256"
        }
      ],
      "name": "setMinConfirmations",
      "outputs": [],
      "stateMutability": "nonpayable",
      "type": "function"
    },
    {
      "inputs": [
        {
          "internalType": "uint128",
          "name": "_payment",
          "type": "uint128"
        }
      ],
      "name": "setPayment",
      "outputs": [],
      "stateMutability": "nonpayable",
      "type": "function"
    },
    {
      "inputs": [
        {
          "internalType": "bytes4",
          "name": "interfaceId",
          "type": "bytes4"
        }
      ],
      "name": "supportsInterface",
      "outputs": [
        {
          "internalType": "bool",
          "name": "",
          "type": "bool"
        }
      ],
      "stateMutability": "view",
      "type": "function"
    },
    {
      "inputs": [],
      "name": "updateAvailableFunds",
      "outputs": [],
      "stateMutability": "nonpayable",
      "type": "function"
    },
    {
      "inputs": [
        {
          "internalType": "address",
          "name": "_recipient",
          "type": "address"
        },
        {
          "internalType": "uint256",
          "name": "_amount",
          "type": "uint256"
        }
      ],
      "name": "withdrawFunds",
      "outputs": [],
      "stateMutability": "nonpayable",
      "type": "function"
    },
    {
      "inputs": [
        {
          "internalType": "address",
          "name": "_oracle",
          "type": "address"
        },
        {
          "internalType": "address",
          "name": "_recipient",
          "type": "address"
        },
        {
          "internalType": "uint256",
          "name": "_amount",
          "type": "uint256"
        }
      ],
      "name": "withdrawPayment",
      "outputs": [],
      "stateMutability": "nonpayable",
      "type": "function"
    },
    {
      "inputs": [
        {
          "internalType": "address",
          "name": "_oracle",
          "type": "address"
        }
      ],
      "name": "withdrawablePayment",
      "outputs": [
        {
          "internalType": "uint256",
          "name": "",
          "type": "uint256"
        }
      ],
      "stateMutability": "view",
      "type": "function"
    },
    {
      "inputs": [
        {
          "internalType": "bytes32",
          "name": "_mintId",
          "type": "bytes32"
        }
      ],
      "name": "submitMint",
      "outputs": [],
      "stateMutability": "nonpayable",
      "type": "function"
    },
    {
      "inputs": [
        {
          "internalType": "bytes32",
          "name": "_burntId",
          "type": "bytes32"
        }
      ],
      "name": "submitBurn",
      "outputs": [],
      "stateMutability": "nonpayable",
      "type": "function"
    },
    {
      "inputs": [
        {
          "internalType": "bytes32",
          "name": "_debridgeId",
          "type": "bytes32"
        },
        {
          "internalType": "contract IWhiteDebridge",
          "name": "_debridge",
          "type": "address"
        }
      ],
      "name": "setDebridge",
      "outputs": [],
      "stateMutability": "nonpayable",
      "type": "function"
    },
    {
      "inputs": [
        {
          "internalType": "bytes32",
          "name": "_mintId",
          "type": "bytes32"
        }
      ],
      "name": "isMintConfirmed",
      "outputs": [
        {
          "internalType": "bool",
          "name": "",
          "type": "bool"
        }
      ],
      "stateMutability": "view",
      "type": "function"
    },
    {
      "inputs": [
        {
          "internalType": "bytes32",
          "name": "_burntId",
          "type": "bytes32"
        }
      ],
      "name": "isBurntConfirmed",
      "outputs": [
        {
          "internalType": "bool",
          "name": "",
          "type": "bool"
        }
      ],
      "stateMutability": "view",
      "type": "function"
    }
  ],
  "bytecode": "0x60806040523480156200001157600080fd5b5060405162002ae538038062002ae58339818101604052810190620000379190620002cc565b8282828260018190555081600460006101000a8154816fffffffffffffffffffffffffffffffff02191690836fffffffffffffffffffffffffffffffff16021790555080600560006101000a81548173ffffffffffffffffffffffffffffffffffffffff021916908373ffffffffffffffffffffffffffffffffffffffff160217905550620000d06000801b336200010e60201b60201c565b620001027f68e79a7bf1e0bc45d0a330c573bc367f9cf464fd326078812f301165fbda4ef1336200010e60201b60201c565b505050505050620003de565b6200012082826200012460201b60201c565b5050565b6200013682826200021560201b60201c565b6200021157600160008084815260200190815260200160002060000160008373ffffffffffffffffffffffffffffffffffffffff1673ffffffffffffffffffffffffffffffffffffffff16815260200190815260200160002060006101000a81548160ff021916908315150217905550620001b66200027f60201b60201c565b73ffffffffffffffffffffffffffffffffffffffff168173ffffffffffffffffffffffffffffffffffffffff16837f2f8788117e7eff1d82e926ec794901d17c78024a50270940304540a733656f0d60405160405180910390a45b5050565b600080600084815260200190815260200160002060000160008373ffffffffffffffffffffffffffffffffffffffff1673ffffffffffffffffffffffffffffffffffffffff16815260200190815260200160002060009054906101000a900460ff16905092915050565b600033905090565b600081519050620002988162000390565b92915050565b600081519050620002af81620003aa565b92915050565b600081519050620002c681620003c4565b92915050565b600080600060608486031215620002e257600080fd5b6000620002f286828701620002b5565b935050602062000305868287016200029e565b9250506040620003188682870162000287565b9150509250925092565b60006200032f8262000366565b9050919050565b6000620003438262000322565b9050919050565b60006fffffffffffffffffffffffffffffffff82169050919050565b600073ffffffffffffffffffffffffffffffffffffffff82169050919050565b6000819050919050565b6200039b8162000336565b8114620003a757600080fd5b50565b620003b5816200034a565b8114620003c157600080fd5b50565b620003cf8162000386565b8114620003db57600080fd5b50565b6126f780620003ee6000396000f3fe608060405234801561001057600080fd5b50600436106101e55760003560e01c806357cf07ca1161010f578063c4b56cd0116100a2578063df5dd1a511610071578063df5dd1a514610590578063e2e40317146105ac578063e7c4393e146105dc578063fdc85fc4146105fa576101e5565b8063c4b56cd01461051e578063d28216551461053a578063d4cc54e414610556578063d547741f14610574576101e5565b8063a217fddf116100de578063a217fddf14610498578063a4c0ed36146104b6578063a61ece18146104d2578063c107532914610502576101e5565b806357cf07ca146103ec57806382313e501461041c57806391d1485414610438578063a1e5c7b114610468576101e5565b80633168f5041161018757806344914e461161015657806344914e461461037757806346fcff4c146103a85780634f8fc3b5146103c657806351be6ad7146103d0576101e5565b80633168f504146102f057806336568abe146103215780633d3d77141461033d57806342f6487a14610359576101e5565b80631c4695f4116101c35780631c4695f414610254578063248a9ca3146102725780632dd6b35c146102a25780632f2ff15d146102d4576101e5565b806301ffc9a7146101ea57806307e2cea51461021a5780630b29b94314610238575b600080fd5b61020460048036038101906101ff9190611c7f565b610616565b6040516102119190611f51565b60405180910390f35b610222610690565b60405161022f9190611f95565b60405180910390f35b610252600480360381019061024d9190611bde565b6106b4565b005b61025c610872565b6040516102699190611fb0565b60405180910390f35b61028c60048036038101906102879190611bde565b610898565b6040516102999190611f95565b60405180910390f35b6102bc60048036038101906102b79190611a95565b6108b7565b6040516102cb93929190612161565b60405180910390f35b6102ee60048036038101906102e99190611c07565b61093d565b005b61030a60048036038101906103059190611bde565b6109a3565b604051610318929190611f6c565b60405180910390f35b61033b60048036038101906103369190611c07565b6109d4565b005b61035760048036038101906103529190611abe565b610a57565b005b610361610da0565b60405161036e9190612146565b60405180910390f35b610391600480360381019061038c9190611bde565b610dc2565b60405161039f929190611f6c565b60405180910390f35b6103b0610df3565b6040516103bd9190612198565b60405180910390f35b6103ce610df9565b005b6103ea60048036038101906103e59190611c43565b610eb9565b005b61040660048036038101906104019190611bde565b610f5b565b6040516104139190611fcb565b60405180910390f35b61043660048036038101906104319190611ca8565b610f8e565b005b610452600480360381019061044d9190611c07565b611016565b60405161045f9190611f51565b60405180910390f35b610482600480360381019061047d9190611bde565b611080565b60405161048f9190611f51565b60405180910390f35b6104a06110ad565b6040516104ad9190611f95565b60405180910390f35b6104d060048036038101906104cb9190611b49565b6110b4565b005b6104ec60048036038101906104e79190611bde565b611108565b6040516104f99190611f51565b60405180910390f35b61051c60048036038101906105179190611b0d565b611135565b005b61053860048036038101906105339190611bde565b6112c0565b005b610554600480360381019061054f9190611cd1565b61147e565b005b61055e6114d4565b60405161056b9190612198565b60405180910390f35b61058e60048036038101906105899190611c07565b6114da565b005b6105aa60048036038101906105a59190611a95565b611540565b005b6105c660048036038101906105c19190611a95565b61156d565b6040516105d39190612198565b60405180910390f35b6105e46115e7565b6040516105f19190612198565b60405180910390f35b610614600480360381019061060f9190611a95565b6115ed565b005b60007f7965db0b000000000000000000000000000000000000000000000000000000007bffffffffffffffffffffffffffffffffffffffffffffffffffffffff1916827bffffffffffffffffffffffffffffffffffffffffffffffffffffffff1916148061068957506106888261161a565b5b9050919050565b7f68e79a7bf1e0bc45d0a330c573bc367f9cf464fd326078812f301165fbda4ef181565b6106de7f68e79a7bf1e0bc45d0a330c573bc367f9cf464fd326078812f301165fbda4ef133611016565b61071d576040517f08c379a000000000000000000000000000000000000000000000000000000000815260040161071490612106565b60405180910390fd5b60006007600083815260200190815260200160002090508060020160003373ffffffffffffffffffffffffffffffffffffffff1673ffffffffffffffffffffffffffffffffffffffff16815260200190815260200160002060009054906101000a900460ff16156107c3576040517f08c379a00000000000000000000000000000000000000000000000000000000081526004016107ba90612026565b60405180910390fd5b60018160010160008282546107d8919061220a565b9250508190555060018160020160003373ffffffffffffffffffffffffffffffffffffffff1673ffffffffffffffffffffffffffffffffffffffff16815260200190815260200160002060006101000a81548160ff021916908315150217905550600154816001015414156108655760018160000160006101000a81548160ff0219169083151502179055505b61086e33611684565b5050565b600560009054906101000a900473ffffffffffffffffffffffffffffffffffffffff1681565b6000806000838152602001908152602001600020600101549050919050565b60066020528060005260406000206000915090508060000160009054906101000a90046fffffffffffffffffffffffffffffffff16908060010160009054906101000a900473ffffffffffffffffffffffffffffffffffffffff16908060020160009054906101000a900473ffffffffffffffffffffffffffffffffffffffff16905083565b61095661094983610898565b6109516117da565b611016565b610995576040517f08c379a000000000000000000000000000000000000000000000000000000000815260040161098c90611fe6565b60405180910390fd5b61099f82826117e2565b5050565b60086020528060005260406000206000915090508060000160009054906101000a900460ff16908060010154905082565b6109dc6117da565b73ffffffffffffffffffffffffffffffffffffffff168173ffffffffffffffffffffffffffffffffffffffff1614610a49576040517f08c379a0000000000000000000000000000000000000000000000000000000008152600401610a4090612126565b60405180910390fd5b610a5382826118c2565b5050565b3373ffffffffffffffffffffffffffffffffffffffff16600660008573ffffffffffffffffffffffffffffffffffffffff1673ffffffffffffffffffffffffffffffffffffffff16815260200190815260200160002060010160009054906101000a900473ffffffffffffffffffffffffffffffffffffffff1673ffffffffffffffffffffffffffffffffffffffff1614610b27576040517f08c379a0000000000000000000000000000000000000000000000000000000008152600401610b1e906120c6565b60405180910390fd5b60008190506000600660008673ffffffffffffffffffffffffffffffffffffffff1673ffffffffffffffffffffffffffffffffffffffff16815260200190815260200160002060000160009054906101000a90046fffffffffffffffffffffffffffffffff169050816fffffffffffffffffffffffffffffffff16816fffffffffffffffffffffffffffffffff161015610bf6576040517f08c379a0000000000000000000000000000000000000000000000000000000008152600401610bed90612006565b60405180910390fd5b8181610c029190612260565b600660008773ffffffffffffffffffffffffffffffffffffffff1673ffffffffffffffffffffffffffffffffffffffff16815260200190815260200160002060000160006101000a8154816fffffffffffffffffffffffffffffffff02191690836fffffffffffffffffffffffffffffffff160217905550816fffffffffffffffffffffffffffffffff1660026000828254610c9e9190612294565b92505081905550600560009054906101000a900473ffffffffffffffffffffffffffffffffffffffff1673ffffffffffffffffffffffffffffffffffffffff1663a9059cbb85846fffffffffffffffffffffffffffffffff166040518363ffffffff1660e01b8152600401610d14929190611f28565b602060405180830381600087803b158015610d2e57600080fd5b505af1158015610d42573d6000803e3d6000fd5b505050506040513d601f19601f82011682018060405250810190610d669190611bb5565b610d99577f4e487b7100000000000000000000000000000000000000000000000000000000600052600160045260246000fd5b5050505050565b600460009054906101000a90046fffffffffffffffffffffffffffffffff1681565b60076020528060005260406000206000915090508060000160009054906101000a900460ff16908060010154905082565b60035481565b600254600560009054906101000a900473ffffffffffffffffffffffffffffffffffffffff1673ffffffffffffffffffffffffffffffffffffffff166370a08231306040518263ffffffff1660e01b8152600401610e579190611f0d565b60206040518083038186803b158015610e6f57600080fd5b505afa158015610e83573d6000803e3d6000fd5b505050506040513d601f19601f82011682018060405250810190610ea79190611cfa565b610eb19190612294565b600381905550565b610ec66000801b33611016565b610f05576040517f08c379a0000000000000000000000000000000000000000000000000000000008152600401610efc906120e6565b60405180910390fd5b806009600084815260200190815260200160002060006101000a81548173ffffffffffffffffffffffffffffffffffffffff021916908373ffffffffffffffffffffffffffffffffffffffff1602179055505050565b60096020528060005260406000206000915054906101000a900473ffffffffffffffffffffffffffffffffffffffff1681565b610f9b6000801b33611016565b610fda576040517f08c379a0000000000000000000000000000000000000000000000000000000008152600401610fd1906120e6565b60405180910390fd5b80600460006101000a8154816fffffffffffffffffffffffffffffffff02191690836fffffffffffffffffffffffffffffffff16021790555050565b600080600084815260200190815260200160002060000160008373ffffffffffffffffffffffffffffffffffffffff1673ffffffffffffffffffffffffffffffffffffffff16815260200190815260200160002060009054906101000a900460ff16905092915050565b60006007600083815260200190815260200160002060000160009054906101000a900460ff169050919050565b6000801b81565b600082829050146110fa576040517f08c379a00000000000000000000000000000000000000000000000000000000081526004016110f190612066565b60405180910390fd5b611102610df9565b50505050565b60006008600083815260200190815260200160002060000160009054906101000a900460ff169050919050565b6111426000801b33611016565b611181576040517f08c379a0000000000000000000000000000000000000000000000000000000008152600401611178906120e6565b60405180910390fd5b8060035410156111c6576040517f08c379a00000000000000000000000000000000000000000000000000000000081526004016111bd906120a6565b60405180910390fd5b600560009054906101000a900473ffffffffffffffffffffffffffffffffffffffff1673ffffffffffffffffffffffffffffffffffffffff1663a9059cbb83836040518363ffffffff1660e01b8152600401611223929190611f28565b602060405180830381600087803b15801561123d57600080fd5b505af1158015611251573d6000803e3d6000fd5b505050506040513d601f19601f820116820180604052508101906112759190611bb5565b6112b4576040517f08c379a00000000000000000000000000000000000000000000000000000000081526004016112ab90612046565b60405180910390fd5b6112bc610df9565b5050565b6112ea7f68e79a7bf1e0bc45d0a330c573bc367f9cf464fd326078812f301165fbda4ef133611016565b611329576040517f08c379a000000000000000000000000000000000000000000000000000000000815260040161132090612106565b60405180910390fd5b60006008600083815260200190815260200160002090508060020160003373ffffffffffffffffffffffffffffffffffffffff1673ffffffffffffffffffffffffffffffffffffffff16815260200190815260200160002060009054906101000a900460ff16156113cf576040517f08c379a00000000000000000000000000000000000000000000000000000000081526004016113c690612026565b60405180910390fd5b60018160010160008282546113e4919061220a565b9250508190555060018160020160003373ffffffffffffffffffffffffffffffffffffffff1673ffffffffffffffffffffffffffffffffffffffff16815260200190815260200160002060006101000a81548160ff021916908315150217905550600154816001015414156114715760018160000160006101000a81548160ff0219169083151502179055505b61147a33611684565b5050565b61148b6000801b33611016565b6114ca576040517f08c379a00000000000000000000000000000000000000000000000000000000081526004016114c1906120e6565b60405180910390fd5b8060018190555050565b60025481565b6114f36114e683610898565b6114ee6117da565b611016565b611532576040517f08c379a000000000000000000000000000000000000000000000000000000000815260040161152990612086565b60405180910390fd5b61153c82826118c2565b5050565b61156a7f68e79a7bf1e0bc45d0a330c573bc367f9cf464fd326078812f301165fbda4ef18261093d565b50565b6000600660008373ffffffffffffffffffffffffffffffffffffffff1673ffffffffffffffffffffffffffffffffffffffff16815260200190815260200160002060000160009054906101000a90046fffffffffffffffffffffffffffffffff166fffffffffffffffffffffffffffffffff169050919050565b60015481565b6116177f68e79a7bf1e0bc45d0a330c573bc367f9cf464fd326078812f301165fbda4ef1826114da565b50565b60007f01ffc9a7000000000000000000000000000000000000000000000000000000007bffffffffffffffffffffffffffffffffffffffffffffffffffffffff1916827bffffffffffffffffffffffffffffffffffffffffffffffffffffffff1916149050919050565b600460009054906101000a90046fffffffffffffffffffffffffffffffff166fffffffffffffffffffffffffffffffff16600360008282546116c69190612294565b92505081905550600460009054906101000a90046fffffffffffffffffffffffffffffffff166fffffffffffffffffffffffffffffffff166002600082825461170f919061220a565b92505081905550600460009054906101000a90046fffffffffffffffffffffffffffffffff16600660008373ffffffffffffffffffffffffffffffffffffffff1673ffffffffffffffffffffffffffffffffffffffff16815260200190815260200160002060000160008282829054906101000a90046fffffffffffffffffffffffffffffffff166117a191906121c4565b92506101000a8154816fffffffffffffffffffffffffffffffff02191690836fffffffffffffffffffffffffffffffff16021790555050565b600033905090565b6117ec8282611016565b6118be57600160008084815260200190815260200160002060000160008373ffffffffffffffffffffffffffffffffffffffff1673ffffffffffffffffffffffffffffffffffffffff16815260200190815260200160002060006101000a81548160ff0219169083151502179055506118636117da565b73ffffffffffffffffffffffffffffffffffffffff168173ffffffffffffffffffffffffffffffffffffffff16837f2f8788117e7eff1d82e926ec794901d17c78024a50270940304540a733656f0d60405160405180910390a45b5050565b6118cc8282611016565b1561199f57600080600084815260200190815260200160002060000160008373ffffffffffffffffffffffffffffffffffffffff1673ffffffffffffffffffffffffffffffffffffffff16815260200190815260200160002060006101000a81548160ff0219169083151502179055506119446117da565b73ffffffffffffffffffffffffffffffffffffffff168173ffffffffffffffffffffffffffffffffffffffff16837ff6391f5c32d9c69d2a47ea670b442974b53935d1edc7fd64eb21e047a839171b60405160405180910390a45b5050565b6000813590506119b281612620565b92915050565b6000815190506119c781612637565b92915050565b6000813590506119dc8161264e565b92915050565b6000813590506119f181612665565b92915050565b60008083601f840112611a0957600080fd5b8235905067ffffffffffffffff811115611a2257600080fd5b602083019150836001820283011115611a3a57600080fd5b9250929050565b600081359050611a508161267c565b92915050565b600081359050611a6581612693565b92915050565b600081359050611a7a816126aa565b92915050565b600081519050611a8f816126aa565b92915050565b600060208284031215611aa757600080fd5b6000611ab5848285016119a3565b91505092915050565b600080600060608486031215611ad357600080fd5b6000611ae1868287016119a3565b9350506020611af2868287016119a3565b9250506040611b0386828701611a6b565b9150509250925092565b60008060408385031215611b2057600080fd5b6000611b2e858286016119a3565b9250506020611b3f85828601611a6b565b9150509250929050565b60008060008060608587031215611b5f57600080fd5b6000611b6d878288016119a3565b9450506020611b7e87828801611a6b565b935050604085013567ffffffffffffffff811115611b9b57600080fd5b611ba7878288016119f7565b925092505092959194509250565b600060208284031215611bc757600080fd5b6000611bd5848285016119b8565b91505092915050565b600060208284031215611bf057600080fd5b6000611bfe848285016119cd565b91505092915050565b60008060408385031215611c1a57600080fd5b6000611c28858286016119cd565b9250506020611c39858286016119a3565b9150509250929050565b60008060408385031215611c5657600080fd5b6000611c64858286016119cd565b9250506020611c7585828601611a41565b9150509250929050565b600060208284031215611c9157600080fd5b6000611c9f848285016119e2565b91505092915050565b600060208284031215611cba57600080fd5b6000611cc884828501611a56565b91505092915050565b600060208284031215611ce357600080fd5b6000611cf184828501611a6b565b91505092915050565b600060208284031215611d0c57600080fd5b6000611d1a84828501611a80565b91505092915050565b611d2c816122c8565b82525050565b611d3b816122da565b82525050565b611d4a816122e6565b82525050565b611d5981612374565b82525050565b611d6881612398565b82525050565b6000611d7b602f836121b3565b9150611d86826123eb565b604082019050919050565b6000611d9e601f836121b3565b9150611da98261243a565b602082019050919050565b6000611dc16019836121b3565b9150611dcc82612463565b602082019050919050565b6000611de4601e836121b3565b9150611def8261248c565b602082019050919050565b6000611e076020836121b3565b9150611e12826124b5565b602082019050919050565b6000611e2a6030836121b3565b9150611e35826124de565b604082019050919050565b6000611e4d601a836121b3565b9150611e588261252d565b602082019050919050565b6000611e706016836121b3565b9150611e7b82612556565b602082019050919050565b6000611e936013836121b3565b9150611e9e8261257f565b602082019050919050565b6000611eb66014836121b3565b9150611ec1826125a8565b602082019050919050565b6000611ed9602f836121b3565b9150611ee4826125d1565b604082019050919050565b611ef88161232e565b82525050565b611f078161236a565b82525050565b6000602082019050611f226000830184611d23565b92915050565b6000604082019050611f3d6000830185611d23565b611f4a6020830184611efe565b9392505050565b6000602082019050611f666000830184611d32565b92915050565b6000604082019050611f816000830185611d32565b611f8e6020830184611efe565b9392505050565b6000602082019050611faa6000830184611d41565b92915050565b6000602082019050611fc56000830184611d50565b92915050565b6000602082019050611fe06000830184611d5f565b92915050565b60006020820190508181036000830152611fff81611d6e565b9050919050565b6000602082019050818103600083015261201f81611d91565b9050919050565b6000602082019050818103600083015261203f81611db4565b9050919050565b6000602082019050818103600083015261205f81611dd7565b9050919050565b6000602082019050818103600083015261207f81611dfa565b9050919050565b6000602082019050818103600083015261209f81611e1d565b9050919050565b600060208201905081810360008301526120bf81611e40565b9050919050565b600060208201905081810360008301526120df81611e63565b9050919050565b600060208201905081810360008301526120ff81611e86565b9050919050565b6000602082019050818103600083015261211f81611ea9565b9050919050565b6000602082019050818103600083015261213f81611ecc565b9050919050565b600060208201905061215b6000830184611eef565b92915050565b60006060820190506121766000830186611eef565b6121836020830185611d23565b6121906040830184611d23565b949350505050565b60006020820190506121ad6000830184611efe565b92915050565b600082825260208201905092915050565b60006121cf8261232e565b91506121da8361232e565b9250826fffffffffffffffffffffffffffffffff038211156121ff576121fe6123bc565b5b828201905092915050565b60006122158261236a565b91506122208361236a565b9250827fffffffffffffffffffffffffffffffffffffffffffffffffffffffffffffffff03821115612255576122546123bc565b5b828201905092915050565b600061226b8261232e565b91506122768361232e565b925082821015612289576122886123bc565b5b828203905092915050565b600061229f8261236a565b91506122aa8361236a565b9250828210156122bd576122bc6123bc565b5b828203905092915050565b60006122d38261234a565b9050919050565b60008115159050919050565b6000819050919050565b60007fffffffff0000000000000000000000000000000000000000000000000000000082169050919050565b6000612327826122c8565b9050919050565b60006fffffffffffffffffffffffffffffffff82169050919050565b600073ffffffffffffffffffffffffffffffffffffffff82169050919050565b6000819050919050565b600061237f82612386565b9050919050565b60006123918261234a565b9050919050565b60006123a3826123aa565b9050919050565b60006123b58261234a565b9050919050565b7f4e487b7100000000000000000000000000000000000000000000000000000000600052601160045260246000fd5b7f416363657373436f6e74726f6c3a2073656e646572206d75737420626520616e60008201527f2061646d696e20746f206772616e740000000000000000000000000000000000602082015250565b7f696e73756666696369656e7420776974686472617761626c652066756e647300600082015250565b7f7375626d69743a207375626d697474656420616c726561647900000000000000600082015250565b7f776974686472617746756e64733a207472616e73666572206661696c65640000600082015250565b7f7472616e7366657220646f65736e2774206163636570742063616c6c64617461600082015250565b7f416363657373436f6e74726f6c3a2073656e646572206d75737420626520616e60008201527f2061646d696e20746f207265766f6b6500000000000000000000000000000000602082015250565b7f696e73756666696369656e7420726573657276652066756e6473000000000000600082015250565b7f6f6e6c792063616c6c61626c652062792061646d696e00000000000000000000600082015250565b7f6f6e6c7941646d696e3a2062616420726f6c6500000000000000000000000000600082015250565b7f6f6e6c794f7261636c653a2062616420726f6c65000000000000000000000000600082015250565b7f416363657373436f6e74726f6c3a2063616e206f6e6c792072656e6f756e636560008201527f20726f6c657320666f722073656c660000000000000000000000000000000000602082015250565b612629816122c8565b811461263457600080fd5b50565b612640816122da565b811461264b57600080fd5b50565b612657816122e6565b811461266257600080fd5b50565b61266e816122f0565b811461267957600080fd5b50565b6126858161231c565b811461269057600080fd5b50565b61269c8161232e565b81146126a757600080fd5b50565b6126b38161236a565b81146126be57600080fd5b5056fea2646970667358221220a8f8643523c8671311efc4e56eccdead7d0735c417b726027973f86220aa15d264736f6c63430008020033",
  "immutableReferences": {},
  "source": "// SPDX-License-Identifier: MIT\npragma solidity ^0.8.2;\n\nimport \"@openzeppelin/contracts/access/AccessControl.sol\";\nimport \"@openzeppelin/contracts/token/ERC20/IERC20.sol\";\nimport \"../interfaces/IWhiteDebridge.sol\";\nimport \"./Aggregator.sol\";\n\ncontract WhiteAggregator is Aggregator {\n    struct SubmissionInfo {\n        bool confirmed;\n        uint256 confirmations;\n        mapping(address => bool) hasVerified;\n    }\n\n    mapping(bytes32 => SubmissionInfo) public getMintInfo;\n    mapping(bytes32 => SubmissionInfo) public getBurntInfo;\n    mapping(bytes32 => IWhiteDebridge) public getDebridge;\n\n    event Confirmed(bytes32 commitment, bytes32 debridgeId, address operator);\n    event Broadcasted(bytes32 debridgeId, bytes32 commitment);\n\n    constructor(\n        uint256 _minConfirmations,\n        uint128 _payment,\n        IERC20 _link\n    ) Aggregator(_minConfirmations, _payment, _link) {}\n\n    function submitMint(bytes32 _mintId) external onlyOracle {\n        SubmissionInfo storage mintInfo = getMintInfo[_mintId];\n        require(!mintInfo.hasVerified[msg.sender], \"submit: submitted already\");\n        mintInfo.confirmations += 1;\n        mintInfo.hasVerified[msg.sender] = true;\n        if (mintInfo.confirmations == minConfirmations) {\n            mintInfo.confirmed = true;\n        }\n        _payOracle(msg.sender);\n    }\n\n    function submitBurn(bytes32 _burntId) external onlyOracle {\n        SubmissionInfo storage burnInfo = getBurntInfo[_burntId];\n        require(!burnInfo.hasVerified[msg.sender], \"submit: submitted already\");\n        burnInfo.confirmations += 1;\n        burnInfo.hasVerified[msg.sender] = true;\n        if (burnInfo.confirmations == minConfirmations) {\n            burnInfo.confirmed = true;\n        }\n        _payOracle(msg.sender);\n    }\n\n    function setDebridge(bytes32 _debridgeId, IWhiteDebridge _debridge)\n        external\n        onlyAdmin\n    {\n        getDebridge[_debridgeId] = _debridge;\n    }\n\n    function isMintConfirmed(bytes32 _mintId) external view returns (bool) {\n        return getMintInfo[_mintId].confirmed;\n    }\n\n    function isBurntConfirmed(bytes32 _burntId) external view returns (bool) {\n        return getBurntInfo[_burntId].confirmed;\n    }\n}\n",
  "sourcePath": "/Users/kstasi/Documents/work/debridge-contracts/contracts/chainlink/WhiteAggregator.sol",
  "compiler": {
    "name": "solc",
    "version": "0.8.2+commit.661d1103.Emscripten.clang"
  },
  "schemaVersion": "3.3.4",
  "updatedAt": "2021-03-18T10:11:54.649Z",
  "devdoc": {
    "kind": "dev",
    "methods": {
      "getRoleAdmin(bytes32)": {
        "details": "Returns the admin role that controls `role`. See {grantRole} and {revokeRole}. To change a role's admin, use {_setRoleAdmin}."
      },
      "grantRole(bytes32,address)": {
        "details": "Grants `role` to `account`. If `account` had not been already granted `role`, emits a {RoleGranted} event. Requirements: - the caller must have ``role``'s admin role."
      },
      "hasRole(bytes32,address)": {
        "details": "Returns `true` if `account` has been granted `role`."
      },
      "renounceRole(bytes32,address)": {
        "details": "Revokes `role` from the calling account. Roles are often managed via {grantRole} and {revokeRole}: this function's purpose is to provide a mechanism for accounts to lose their privileges if they are compromised (such as when a trusted device is misplaced). If the calling account had been granted `role`, emits a {RoleRevoked} event. Requirements: - the caller must be `account`."
      },
      "revokeRole(bytes32,address)": {
        "details": "Revokes `role` from `account`. If `account` had been granted `role`, emits a {RoleRevoked} event. Requirements: - the caller must have ``role``'s admin role."
      },
      "supportsInterface(bytes4)": {
        "details": "See {IERC165-supportsInterface}."
      }
    },
    "version": 1
  },
  "userdoc": {
    "kind": "user",
    "methods": {},
    "version": 1
  }
}